:100000000C9441000C945E000C945E000C945E0015
:100010000C945E000C945E000C945E000C945E00E8
:100020000C945E000C945E000C945E000C948600B0
:100030000C945E000C945E000C945E000C945E00C8
:100040000C945E000C945E000C945E000C945E00B8
:100050000C945E000C945E000C945E000C945E00A8
:100060000C945E000C945E006E616E00696E66001A
:100070006364696E6F70737578585B656667454633
:10008000470011241FBECFEFD8E0DEBFCDBF11E087
:10009000A0E0B1E0E4E3FAE102C005900D92A234E1
:1000A000B107D9F721E0A2E4B1E001C01D92AA3561
:1000B000B207E1F70E94B0090C94680C0C940000A0
:1000C0009091C00095FFFCCF8093C60080E090E047
:1000D00008958091C00087FFFCCF8091C60090E01A
:1000E0000895813089F082E480937C0080917A00C9
:1000F000806480937A0080917A0086FDFCCF8091A5
:10010000780090917900089581E4EECF8F938FB7B6
:100110008F939F9381E480937C0080917A00806428
:1001200080937A0080917A0086FDFCCF80917800E0
:1001300090917900809344019093450182E48093EB
:100140007C0080917A00806480937A0080917A00AC
:1001500086FDFCCF809178009091790080934201D8
:10016000909343019F918F918FBF8F911895259AFE
:1001700087E690E09093C5008093C4001092C00081
:1001800088E18093C10086E08093C20090E4909360
:100190007C0080937E00EAE7F0E087E08083808146
:1001A00080688083E1E888E080839DE39093890004
:1001B00080938800AFE6B0E08C9182608C93808160
:1001C0008560808383B7817F83BF0895AFE0B0E00F
:1001D000ECEEF0E00C94250A7C013B015A01FC0195
:1001E00016821782838181FF51C39AE0292EF7017D
:1001F0002381F30123FD859123FF81913F01811527
:1002000009F442C0853239F423FD959123FF919181
:100210003F01953239F4B70190E00E94A90B6501C6
:100220005601E5CF30E010E0812C912CF0E28F16E2
:1002300008F03CC09B3279F160F4903271F1933256
:1002400091F19E3209F045C086FC1EC0689486F884
:1002500006C09D3229F1903359F5689480F8F30176
:1002600023FD959123FF91913F019111DFCF082D3F
:10027000097F903709F481C208F077C2983509F4F4
:100280007FC29F3609F483C2F701868197812F963A
:10029000E2E10C94410A689481F8689482F8DFCF17
:1002A000689483F8DCCF689484F8D9CF87FC1BC0AE
:1002B00080ED890F8A3028F686FE05C0129D800DDC
:1002C0001124182FCCCF929C800D1124982E8F2AA8
:1002D000C6CF9C3619F4689487F8C1CF9C3409F1D5
:1002E000983609F4BCCF3115F1F0892F8F7D8554F4
:1002F000833008F095C1650128E0C20ED11C8FE360
:10030000898301E010E05E013FEFA31AB30AE8948D
:1003100087F883FC04C00915110508F4E8C1592CBD
:10032000FEC131E09CCF8BEB890F833090F4689451
:1003300084F8905E86FE16E04FE38422953689F4B9
:10034000689486F8212F183010F027E017E0412C30
:1003500014C08BE9890F833008F062C1E89484F8F7
:10036000E9CF963699F5689487F8812F1C3308F009
:100370008BE344244394480E27E0F5016191719189
:10038000819191916F01042DAE014F5F5F4F0E94EB
:100390005C0A5C013980832D89700DE2813029F07F
:1003A00082FA002705F981FC0BE2F32DFC705F2E29
:1003B000F11541F133FA332433F801116AC224E014
:1003C000512C921608F47CC283E068C220E011151B
:1003D00009F4BDCF1150B6CF81108052B70190E023
:1003E0000E94A90B0F5F1F4FF80184918111F4CF78
:1003F000511409F415CFB70180E290E00E94A90BD7
:100400005A94F6CF87FE2FC0842D8A0D34FE04C087
:100410009A81913309F4815044244394181634F49A
:10042000482EF9E08F1710F088E0482EC501B7FE7E
:1004300002C080E090E0019601110196111531F0A3
:10044000212F30E02F5F3F4F820F931F89159105B9
:1004500014F4592C581A882D8970A1F551102BC00D
:100460000115C9F131C086FC23C0E12FF0E01A1557
:100470001B043CF02CEFA2162FEFB20614F0689488
:1004800087F8CE010396E80FF91F01C0115011152E
:1004900019F082918033D1F387FE0AC0442443943B
:1004A000410EA116B10414F41A19C0CF10E0BECF4A
:1004B00085E090E0C1CFB70180E290E00E94A90BF7
:1004C0005A94CCCF011529F0B701802F90E00E94FB
:1004D000A90B83FC02C051103FC087FE56C04501E6
:1004E000B7FE02C0812C912CCE0101968A0D9B1D76
:1004F000FC01E819F909EC87FD87950124193109F8
:100500002E873F87012F10E0119501951109A8143E
:10051000B9044CF18E859F858815990524F5EC85E5
:10052000FD858181F1E08F1A910880169106ECF02B
:100530002C853D852F5F3F4F2C873D87B70190E08D
:100540000E94A90B3FEF8316980409F7B7018EE2CA
:1005500090E00E94A90BDBCFB70180E390E00E94FE
:10056000A90B5A94B8CF80E3DDCFA814B90431F4B5
:100570009A81953318F039F434FE05C0B70190E044
:100580000E94A90B35CF81E3F9CF8A81813311F025
:10059000E89434F8B70190E00E94A90B111124C02F
:1005A00085E490E084FC02C085E690E0B7010E94FB
:1005B000A90BA114B1041CF061F534FE2AC0B1945A
:1005C000A194B1088DE2B70190E00E94A90B80E3ED
:1005D0009AE0A916B104FCF4B70190E00E94A90BBF
:1005E000B701C501C096CCCFB7018EE290E00E9462
:1005F000A90B1E5F02E0802F0F5FFE013196E80F0E
:10060000F11D8081B70190E00E94A90B0113F3CF87
:10061000C7CF8BE2D8CF8F5F4AE0A41AB108D8CFFA
:100620009336B9F1933709F442C0933509F44EC0BB
:10063000943619F0993609F07EC0F50187FE73C033
:1006400061917191819191916F01082D0F7697FFC2
:1006500003C00E94170A00682AE030E05E01FFEF45
:10066000AF1ABF0AA5010E94070CB82EBA1806FFE0
:1006700098C0802F8E7FB11608F092C004FFE4C0AE
:1006800002FDD8C00E7E512E802F867809F494C0CA
:10069000D6C06501E2E0CE0ED11CF50180818983D0
:1006A00001E010E05E01FFEFAF1ABF0A30CEF501A6
:1006B000A190B1906F01612F70E086FC02C06FEFD6
:1006C0007FEFC5010E94620B8C0121CEF501A19044
:1006D000B1906F01612F70E086FC02C06FEF7FEF79
:1006E000C5010E94570B8C01689487F812CEB701A0
:1006F00080E290E00E94A90B9A940DCEF50187FC50
:10070000859187FE81915F01B70190E00E94A90B5E
:1007100081E0511001C080E0581A01501109011503
:10072000110561F765CE619171916F01872F880F77
:10073000880B982F8ACF953709F099CD082D0F7E19
:100740002AE030E0F50107FF25C0619171918191A8
:1007500091916F015E01FFEFAF1ABF0AA5010E94E0
:10076000070CB82EBA180F7782CF983709F08CCDC6
:1007700084FC04C020E130E0E5CF00610460FACFE2
:1007800084FE02C0082D066020E132E0DBCF28E0C5
:1007900030E0D8CF619171916F0180E090E0DACFC5
:1007A000082F5B2C04FF70CFFE01EB0DF11D808143
:1007B000803309F042C0097E03FD0EC000FF50C027
:1007C0001B2D591418F4190D1519592C892D85193B
:1007D000951408F480E0580E591408F043C0951899
:1007E000592C04FF41C0B70180E390E00E94A90B9F
:1007F00002FF09C088E590E001FD02C088E790E0B3
:10080000B7010E94A90BB116D0F18E010F5F1F4FE7
:10081000BA949E012E5F3F4F2B0D311D5901F501FA
:1008200082915F01B70190E00E94A90BA016B1066A
:10083000B1F7DECD512E082FB7CF02FD02C0539481
:10084000BBCF53945394B8CF512E082F1DCFB7016F
:1008500080E290E00E94A90BA394A914C0F3B6CF44
:10086000A52CFBCF512CBDCF802F867861F280E282
:1008700001FD8BE207FD8DE2B70190E0C2CFB70129
:1008800080E390E00E94A90B1150BDCF8FEF9FEF46
:10089000FECCF5E0512C9F1670F084E0592C581ACC
:1008A00083FC07C0B70180E290E00E94A90B5A9434
:1008B000C9F7011529F0B701802F90E00E94A90B1C
:1008C00008E610E0311002C00CE610E084FA88243B
:1008D00084F88ACDFC01CA01DB0120FD08C023FD9C
:1008E00005C022FF02C0B383A28391838083089551
:1008F000A82F862FB92F972F33E044FD14C034E082
:1009000046FD11C0AC01BD01DA01FB01AA0FBB1FFE
:10091000EE1FFF1F1094D1F74A0F5B1F6E1F7F1F42
:10092000CA01DB0131E0880F991FAA1FBB1F31509C
:10093000D1F7BC01CD01620F711D811D911D08957C
:10094000A4E0B0E0E6EAF4E00C94350A89839A83E7
:1009500089819A810E946D0B8B839C8397FD0AC0CD
:100960000E943B0B892BA1F769817A818B819C8145
:100970000E94EF0B8B819C812496E2E00C94510A3B
:10098000A4E0B0E0E6ECF4E00C942E0A8C016B835A
:100990007C8349835A83F22E0E946D0BAC0190E058
:1009A0004B3221F08D97A1F46894F7F88B819C81EC
:1009B00001978B839C83892B29F480E02496E9E0BE
:1009C0000C944A0AC8010E946D0BAC0197FDF5CF4B
:1009D000BF2CE894B1F88F2D8073B9F54033A9F599
:1009E000CB80DC8091E0C91AD10831F0C8010E94A7
:1009F0006D0BAC0197FF16C0E12CF12C6701B7FE1F
:100A000008C0F094E094D094C094C11CD11CE11CA7
:100A1000F11C2B2DA601B70189819A810E946A04DD
:100A200081E0CCCF8F7D883549F58F2D8264B82E3B
:100A30008B819C8102978B839C83892BE9F2C8016F
:100A40000E946D0BAC0197FDD7CFE12CF12C670113
:100A500020ED240F2830F0F0B4FC09C02A30D0F08B
:100A6000B6FE05C02F7D8FEE820F863090F0B80164
:100A7000CA010E94EF0BB1FEA0CFC1CFBF2C68947A
:100A8000B1F8F6FC03C09F2D9261B92ECB82DC82B7
:100A9000DCCF27504B2DB601C7010E9478046B01B3
:100AA0007C016894B1F88B819C8101978B839C8336
:100AB000892B09F4A4CFC8010E946D0BAC0197FFEC
:100AC000C7CF9DCF4F925F927F928F929F92AF92AE
:100AD000BF92CF92DF92EF92FF920F931F93CF932B
:100AE000DF93CDB7DEB7A0970FB6F894DEBF0FBE89
:100AF000CDBF4C016B017A015E018FEFA81AB80AD5
:100B000080E2F50111928A95E9F7F4017380890179
:100B100040E050E0B0E020E0A0E061E070E0F801EB
:100B200073FC959173FE9191892F8F01911119C0DA
:100B300000E010E0C801A0960FB6F894DEBF0FBE2B
:100B4000CDBFDF91CF911F910F91FF90EF90DF907C
:100B5000CF90BF90AF909F908F907F905F904F907D
:100B600008959E3519F44115510529F1A41715066C
:100B7000E4F49D3541F19D32C1F4211501F1E82FD6
:100B8000E695E695E695EA0DFB2DF11D282F2770D9
:100B90002B0101C0440C2A95EAF790819429908397
:100BA0008B1779F030F48F5FEACF2111E8CFB92F9E
:100BB000E6CF8150E4CFA1E04F5F5F4FB0CF21E09F
:100BC000FBCF20E0F9CF211519F08E8180628E8352
:100BD000A11561F0F5019E012F5D3F4F8081DF017E
:100BE000319680958C93E217F307C1F777247394BD
:100BF000C4010E946D0B97FD15C0E82FE695E695A0
:100C0000E695EA0DFB2DF11D208130E0AC01477027
:100C100002C0359527954A95E2F720FD06C0B4013C
:100C20000E94EF0B711471F083CFE114F10419F0FD
:100C3000F70181937F0181E0C81AD108712CC1149A
:100C4000D104B1F6E114F10409F474CFF701108274
:100C500071CF2F923F925F926F927F928F929F926D
:100C6000AF92BF92CF92DF92EF92FF920F931F93BA
:100C7000CF93DF9300D000D000D0CDB7DEB76C01AA
:100C80008B011A010E946D0B8D839E838D8190E0F4
:100C90002D812B3209F18D9709F0DCC090E8792E77
:100CA00001501040D9F480E00F900F900F900F90FA
:100CB0000F900F90DF91CF911F910F91FF90EF90C8
:100CC000DF90CF90BF90AF909F908F907F906F906C
:100CD0005F903F902F900895712CE2CFC6010E9443
:100CE0006D0B8D839E838D819E8197FDDCCF8D81E1
:100CF0009E810E94440B8936910509F4D5C08E3639
:100D0000910509F4ECC0A12CB12C450174012D8191
:100D10002053572C2A3008F002C1689451F872FE13
:100D2000E5C073FC03C0FFEFEF1AFF0A015010404B
:100D300049F0C6010E946D0B8D839E838D819E813B
:100D400097FFD2C051FEAFCF8D818F7D853409F0E2
:100D500053C0380191E0691A710809F4A4CFC601A3
:100D60000E946D0B8D839E83ED81FE81F7FD9BCFED
:100D70008E2F90E0EB3221F08D9769F4689454F84F
:100D8000025011093801012B09F48DCFC6010E94D0
:100D90006D0B8D839E838D819E810E94340B892BE8
:100DA00009F481CF00E010E0B801110F880B982FF3
:100DB0002D81205340E20E94780469837A838B83DB
:100DC0009C8309811A8121E0621A710859F0C601D9
:100DD0000E946D0B8D839E838D819E810E94340BBA
:100DE000892B11F754FE05C009811A8111950195CF
:100DF0001109E00EF11E8301012B39F08D819E81D6
:100E000097FD03C0B6010E94EF0BB401C5010E941B
:100E1000BA089B01AC01F7FE8AC0F194E194F10895
:100E2000EDEEF9E1E983FA83C980DA8098E1C91A25
:100E3000D10800E210E0E016F10608F07DC016953A
:100E40000795E981FA813497E983FA83EC15FD056A
:100E500091F722C0712C4BCFE981FA81E017F1079D
:100E600071F0C6010E946D0B9C0197FD08C00E94A5
:100E7000440BF81609F1B601C9010E94EF0B8981F4
:100E80009A818A5D984109F00ECF80E090E0A0E859
:100E9000BFE79C01AD01572C57FC50582114310479
:100EA00009F057C081E000CF87ED98E189839A83EC
:100EB00089819A81080F191FE981FA813196E983A6
:100EC000FA833197F490F110C7CF89819A81875DB9
:100ED0009841D9F680E090E0A0ECBFE7DACFE4EDEE
:100EE000F8E1E983FA83E4CF752C11CF73FE03C0D8
:100EF00081E0E81AF10840E2B401C5010E947804DB
:100F00004B015C0198E9891699E99906A90699E1CE
:100F1000B90608F40BCFE72DE6605E2E07CF2E3F13
:100F200009F010CF73FC0ECF689453F8FFCE85E024
:100F30009AE189839A8378CFE981FA8165917591E5
:100F4000859195910E94F2089B01AC01E01AF10A8B
:100F500072CFF1012083318342835383A3CFA0E07A
:100F6000B0E0E5EBF7E00C942A0A5C01EB01842E7B
:100F7000752EFC0116821782912CF501F380FE017B
:100F8000F3FC0591F3FE0191EF010115F1F0802FC3
:100F900090E00E943B0B892B21F0C5010E94A00428
:100FA000ECCF053241F4FE01F3FC1591F3FE1191F3
:100FB000EF01153269F4C5010E946D0B97FD8FC0DA
:100FC0000817D9F2B5010E94EF0B892D90E08BC074
:100FD00000E01A3231F4F3FC1591F3FE1191EF01A8
:100FE00001E0C12CD12C20ED210F2A3048F101FF66
:100FF00036C0C114D10449F31836A9F11C3609F4DE
:101000003CC0111511F3612F70E080E790E00E9461
:101010004C0B892BD1F2E12CF12C00FD06C0E82D00
:10102000F72DE190F1908E2E7F2E1E3671F5F50191
:101030004681578160E0202FC7010E946A049DCF3E
:101040000260B60180E090E040E20E9478046B010B
:10105000FE01F3FC1591F3FE1191EF01C4CF9FEF58
:10106000D92ECD2CC9CFFE01F3FC1591F3FE1191C1
:10107000EF01183609F0C5CF08600460FE01F3FCEB
:101080001591F3FE1191EF01BCCF1336C1F401FDB0
:1010900003C081E0C82ED12CC5010E946D0B97FDC5
:1010A0001EC0E114F10419F0F70181937F01F1E012
:1010B000CF1AD10889F700FD60CF93945ECF1B351E
:1010C000B9F49E01A701B601C5010E946205EC01B9
:1010D000892B89F7F5018381807309F476CF8FEF2F
:1010E0009FEF911072CFCDB7DEB7EDE00C94460ABA
:1010F000C5010E94A00497FDF2CF183541F11456A6
:10110000153190F5E12FF0E0EB5FF24F0C941F0AE0
:10111000E114F10419F0F70121937F01F1E0CF1AF6
:10112000D10871F0C5010E946D0B9C0197FD08C0AC
:101130000E943B0B892B61F3B501C9010E94EF0BA3
:10114000E114F10409F4B7CFF7011082B4CF0064C1
:10115000202FA701B601C5010E94C0048115B9CF97
:101160000062F6CF0061F4CFA701B601C5010E946D
:101170002906F4CFE89404C097FB16F40E94170ADE
:101180009923A9F0F92F96E9BB279395F6958795B2
:1011900077956795B795F111F8CFFAF4BB0F11F475
:1011A00060FF1BC06F5F7F4F8F4F9F4F16C088231C
:1011B00011F096E911C0772321F09EE8872F762F52
:1011C00005C0662371F096E8862F70E060E02AF093
:1011D0009A95660F771F881FDAF7880F969587957F
:1011E00097F908950E9405090C9476090E946809F0
:1011F00038F00E946F0920F0952311F00C945F09DC
:101200000C94650911240C94AA090E94870970F3B3
:10121000959FC1F3950F50E0551F629FF001729F9B
:10122000BB27F00DB11D639FAA27F00DB11DAA1FAA
:10123000649F6627B00DA11D661F829F2227B00DF7
:10124000A11D621F739FB00DA11D621F839FA00D82
:10125000611D221F749F3327A00D611D231F849FD2
:10126000600D211D822F762F6A2F11249F57504029
:101270009AF0F1F088234AF0EE0FFF1FBB1F661FA4
:10128000771F881F91505040A9F79E3F510580F06D
:101290000C945F090C94AA095F3FE4F3983ED4F3E1
:1012A000869577956795B795F795E7959F5FC1F711
:1012B000FE2B880F911D9695879597F9089597F9BC
:1012C0009F6780E870E060E008959FEF80EC0895EC
:1012D00000240A9416161706180609060895002415
:1012E0000A9412161306140605060895092E03948F
:1012F000000C11F4882352F0BB0F40F4BF2B11F403
:1013000060FF04C06F5F7F4F8F4F9F4F089557FD61
:101310009058440F551F59F05F3F71F04795880F63
:1013200097FB991F61F09F3F79F0879508951216FA
:1013300013061406551FF2CF4695F1DF08C01616A6
:1013400017061806991FF1CF869571056105089457
:101350000895E894BB2766277727CB0197F908956E
:1013600086E491E020E630E020934E0130934F0177
:1013700029E630E0209350013093510123E020937F
:101380004901109252011092530180935801909399
:101390005901809356019093570180935401909383
:1013A00055010E94B7007894C0E0D0E081E2E82EB9
:1013B00081E0F82E00E011E019C02D9880914301E2
:1013C0008F93809142018F93809145018F938091FB
:1013D00044018F931F930F930E94D90B0F900F908E
:1013E0000F900F900F900F9081E0C82783B7816016
:1013F00083BF889583B78E7F83BF2097F1F22D9AA4
:10140000809143018F93809142018F938091450198
:101410008F93809144018F93FF92EF920E94D90B9A
:101420000F900F900F900F900F900F90DDCF909531
:101430008095709561957F4F8F4F9F4F0895EE0F68
:10144000FF1F0590F491E02D09942F923F924F9247
:101450005F926F927F928F929F92AF92BF92CF9244
:10146000DF92EF92FF920F931F93CF93DF93CDB74D
:10147000DEB7CA1BDB0B0FB6F894DEBF0FBECDBFC5
:1014800009942A88398848885F846E847D848C8496
:101490009B84AA84B984C884DF80EE80FD800C819F
:1014A0001B81AA81B981CE0FD11D0FB6F894DEBF82
:1014B0000FBECDBFED010895283008F027E0332797
:1014C000DA01990F311D87FD916000966105710564
:1014D00039F432602E5F3D9330E32A95E1F70895A9
:1014E0009F3F30F080387105610509F03C5F3C5F3B
:1014F0003D93913008F08068911DDF93CF931F9347
:101500000F93FF92EF92192F987F9695E92F96955A
:101510009695E90FFF27E75CF64E99273327EE24CF
:10152000FF24A701E70105900894079428F4360FDB
:10153000E71EF81E491F511D660F771F881F991F50
:101540000694A1F70590079428F4E70EF81E491FAA
:10155000561FC11D770F881F991F661F0694A1F79C
:101560000590079428F4F80E491F561FC71FD11D78
:10157000880F991F661F771F0694A1F7059007949F
:1015800020F4490F561FC71FD81F990F661F771FDA
:10159000881F0694A9F784911095177041F0D6958D
:1015A000C79557954795F794E7941A95C1F7EFEDCE
:1015B000F8E1689415901591359165919591059094
:1015C0007FE27395E118F10A430B560BC90BD00962
:1015D000C0F7E10CF11E431F561FC91FD01D7EF43A
:1015E000703311F48A95E6CFE894015030F0080F7B
:1015F0000AF40027021708F4202F2395022F7A33CC
:1016000028F079E37D932A95E9F710C07D932A9518
:1016100089F6069497956795379517951794E1186D
:10162000F10A430B560BC90BD00998F023957E9114
:1016300073957A3308F070E37C932013B8F77E91AA
:1016400070617D9330F0839571E37D9370E32A950B
:10165000E1F71124EF90FF900F911F91CF91DF914F
:10166000992787FD9095089591110C94650C8053EE
:101670008A50D8F7089591110C94650C803219F0B6
:1016800089508550C8F708959111089581548A5161
:1016900008F4805E855A0895FC010590061621F035
:1016A0000020D9F7C00108953197CF010895FC01BA
:1016B0000590615070400110D8F7809590958E0F7D
:1016C0009F1F0895FC016150704001900110D8F7F0
:1016D000809590958E0F9F1F0895CF93DF93EC0117
:1016E0008B8180FF18C086FF0CC08F7B8B838E811F
:1016F0009F8101968E839F838A8190E0DF91CF91B5
:10170000089582FF16C0E881F9819081292F9111F7
:1017100005C080628B838FEF9FEFF0CF3196E88317
:10172000F9838E819F8101968E839F83822F90E023
:10173000E5CFEA85FB85CE0109959C0197FFF1CFA6
:101740008B812F3F3F4F19F490E1892BE3CF90E23B
:10175000FCCF0F931F93CF93DF93182F092FEB012B
:101760008B8181FD09C00FEF1FEF812F902FDF913B
:10177000CF911F910F91089582FF14C02E813F8158
:101780008C819D81281739073CF4E881F981CF01CC
:1017900001968883998310838E819F8101968E8321
:1017A0009F83E3CFE885F985812F0995892BA1F3E4
:1017B000DACFA0E0B0E0EFEDFBE00C94350AAE012B
:1017C0004B5F5F4FFA0161917191AF0180915601BA
:1017D000909157010E94E600E2E00C94510AFB014F
:1017E0002381322F3174313079F48F3F980771F0B3
:1017F00082832F7D20642383268137812150310904
:101800002683378390E008958FEF9FEF0895FA01C4
:10181000AA27283051F1203181F1E8946F936E7F2F
:101820006E5F7F4F8F4F9F4FAF4FB1E03ED0B4E020
:101830003CD0670F781F891F9A1FA11D680F791F61
:101840008A1F911DA11D6A0F711D811D911DA11D72
:1018500020D009F468943F912AE0269F1124301982
:10186000305D3193DEF6CF010895462F4770405D1D
:101870004193B3E00FD0C9F7F6CF462F4F70405DCC
:101880004A3318F0495D31FD4052419302D0A9F727
:10189000EACFB4E0A6959795879577956795BA9521
:1018A000C9F700976105710508959B01AC010A2EE7
:1018B00006945795479537952795BA95C9F7620FBE
:1018C000731F841F951FA01D0895992788270895C9
:1018D000F894FFCF616E006E66696E6974790000DE
:1018E000407A10F35A00A0724E18090010A5D4E8EF
:1018F0000000E87648170000E40B54020000CA9A82
:101900003B000000E1F505000080969800000040D3
:10191000420F000000A08601000000102700000018
:1019200000E803000000006400000000000A00005E
:101930000000000100000000002C76D888DC674F12
:101940000823DFC1DFAE59E1B1B796E5E3E453C642
:101950003AE651997696E8E6C28426EB898C9B623A
:10196000ED407C6FFCEFBC9C9F40F2BAA56FA5F4E4
:1019700090055A2AF75C936B6CF9676DC11BFCE00C
:10198000E40D47FEF520E6B500D0ED902E0300945F
:101990003577050080841E080000204E0A000000F4
:1019A000C80C333333330F986E12831141EF8D21FE
:1019B00014893BE65516CFFEE6DB18D1844B381B65
:1019C000F77C1D901DA4BBE424203284725E22812A
:1019D00000C9F124ECA1E53D27CDCCCC3D0AD723AD
:1019E0003C17B7D13877CC2B329595E6241FB14FF1
:1019F0000A000020410000C84200401C4620BCBE36
:101A00004CCA1B0E5AAEC59D7400B008B408B40889
:101A1000B408B408A808B408B408B408B408B408F2
:101A2000B208A708B408B4089208B408B008B4080B
:041A3000B408A70847
:101A3400494F5F504F52543A20302C206164633137
:101A44003A2025642C2061646332202564200D0A29
:101A540000494F5F504F52543A20312C2061646347
:101A6400313A2025642C2061646332202564200DE2
:021A74000A0066
:00000001FF
