:100000000C9434000C9449000C9449000C94490061
:100010000C9449000C9449000C9449000C9449003C
:100020000C9449000C9449000C9449000C9449002C
:100030000C9449000C9449000C9449000C9449001C
:100040000C9449000C9449000C9449000C9449000C
:100050000C9449000C9449000C9449000C944900FC
:100060000C9449000C94490011241FBECFEFD8E036
:10007000DEBFCDBF11E0A0E0B1E0ECE7F1E002C0EF
:1000800005900D92AA30B107D9F70E944B000C944D
:10009000BC000C9400008FEF8AB9E9EFF0EC60EB44
:1000A00074EA42E959E928EF32E880E990E8FBB9BF
:1000B000AFEFB3EDC0E3A150B040C040E1F700C0E6
:1000C0000000EBB9AFEFB3EDC0E3A150B040C040CA
:1000D000E1F700C000007BB9AFEFB3EDC0E3A15082
:1000E000B040C040E1F700C000006BB9AFEFB3ED26
:1000F000C0E3A150B040C040E1F700C000005BB9D0
:10010000AFEFB3EDC0E3A150B040C040E1F700C095
:1001100000004BB9AFEFB3EDC0E3A150B040C04019
:10012000E1F700C000003BB9AFEFB3EDC0E3A15071
:10013000B040C040E1F700C000002BB9AFEFB3ED15
:10014000C0E3A150B040C040E1F700C000009BB93F
:10015000AFEFB3EDC0E3A150B040C040E1F700C045
:1001600000008BB9AFEFB3EDC0E3A150B040C04089
:0C017000E1F700C000009BCFF894FFCF27
:0A017C00C0F9A4B0999282F88090B7
:00000001FF
