:100000000C9441000C945E000C945E000C945E0015
:100010000C945E000C945E000C945E000C945E00E8
:100020000C945E000C945E000C945E000C945E00D8
:100030000C945E000C945E000C945E000C945E00C8
:100040000C945E000C945E000C945E000C945E00B8
:100050000C945E000C945E000C945E000C945E00A8
:100060000C945E000C945E006E616E00696E66001A
:100070006364696E6F70737578585B656667454633
:10008000470011241FBECFEFD8E0DEBFCDBF11E087
:10009000A0E0B1E0E6E9FDE102C005900D92A231D9
:1000A000B107D9F721E0A2E1B1E001C01D92A6326B
:1000B000B207E1F70E94840B0C94190E0C94000017
:1000C0000E940A0180E090E0089580FF0BC05E9AD4
:1000D00081FF0BC05D9A82FF0BC05C9A83FF0BC04F
:1000E0005B9A08955E9881FDF5CF5D9882FDF5CF0E
:1000F0005C9883FDF5CF5B9808955F9A982F929551
:100100009F7084FF20C05E9A91FF20C05D9A92FF8D
:1001100020C05C9A93FF20C05B9A5F985F9A80FF33
:1001200020C05E9A81FF20C05D9A82FF20C05C9A49
:1001300083FF20C05B9A5F9887EC90E00197F1F70E
:1001400000C0000008955E9891FDE0CF5D9892FD9B
:10015000E0CF5C9893FDE0CF5B985F985F9A80FD5D
:10016000E0CF5E9881FDE0CF5D9882FDE0CF5C98A6
:1001700083FDE0CF5B985F9887EC90E00197F1F703
:1001800000C00000089528985F9A982F92959F705C
:1001900084FF20C05E9A91FF20C05D9A92FF20C02C
:1001A0005C9A93FF20C05B9A5F985F9A80FF20C0A3
:1001B0005E9A81FF20C05D9A82FF20C05C9A83FF17
:1001C00020C05B9A5F9887EC90E00197F1F700C040
:1001D000000008955E9891FDE0CF5D9892FDE0CF1C
:1001E0005C9893FDE0CF5B985F985F9A80FDE0CFCD
:1001F0005E9881FDE0CF5D9882FDE0CF5C9883FD45
:10020000E0CF5B985F9887EC90E00197F1F700C032
:1002100000000895289A5F9A982F92959F7084FF06
:1002200020C05E9A91FF20C05D9A92FF20C05C9A28
:1002300093FF20C05B9A5F985F9A80FF20C05E9A10
:1002400081FF20C05D9A82FF20C05C9A83FF20C09E
:100250005B9A5F9887EC90E00197F1F700C000008F
:1002600008955E9891FDE0CF5D9892FDE0CF5C9897
:1002700093FDE0CF5B985F985F9A80FDE0CF5E983A
:1002800081FDE0CF5D9882FDE0CF5C9883FDE0CFFB
:100290005B985F9887EC90E00197F1F700C0000051
:1002A0000895FC019081911123C008955E9A21FF69
:1002B0002AC05D9A22FF2AC05C9A23FF2AC05B9A5B
:1002C0005F985F9A90FF2AC05E9A91FF2AC05D9A5C
:1002D00092FF2AC05C9A93FF2AC05B9A5F9887ECD2
:1002E00090E00197F1F700C000009081911509F1AD
:1002F0003196289A5F9A292F22952F7094FDD6CF98
:100300005E9821FDD6CF5D9822FDD6CF5C9823FD67
:10031000D6CF5B985F985F9A90FDD6CF5E9891FD9F
:10032000D6CF5D9892FDD6CF5C9893FDD6CF5B98E3
:10033000D5CF08956295660F660F607C860F28986A
:100340005F9A982F92959F7084FF1EC05E9A91FFCE
:100350001EC05D9A92FF1EC05C9A5B9A5F985F9A7E
:1003600080FF1EC05E9A81FF1EC05D9A82FF1EC084
:100370005C9A83FF1EC05B9A5F9887EC90E00197C0
:10038000F1F700C0000008955E9891FDE2CF5D98FE
:1003900092FDE2CF5C985B9A5F985F9A80FDE2CF16
:1003A0005E9881FDE2CF5D9882FDE2CF5C9883FD8F
:1003B000E2CF5B985F9887EC90E00197F1F700C07F
:1003C0000000089528985F9A5E985D985C985B9805
:1003D0005F985F9A5E9A5D985C985B985F9887ECEF
:1003E00090E00197F1F700C000008FE39FE10197D3
:1003F000F1F700C00000089528985F9A5E985D9814
:100400005C985B985F985F9A5E985D9A5C985B9841
:100410005F9887EC90E00197F1F700C000008FE350
:100420009FE10197F1F700C000000895569A559A90
:10043000549A539A579A209A8FE59AEE0197F1F7BA
:1004400000C0000028985F985F9A5E9A5D9A5C9859
:100450005B985F988FE19EE40197F1F700C0000080
:100460005F9A5E9A5D9A5C985B985F988FE19EE4D4
:100470000197F1F700C000005F9A5E9A5D9A5C9860
:100480005B985F988FE19EE40197F1F700C0000050
:100490005F9A5E985D9A5C985B985F988FE99FE0A1
:1004A0000197F1F700C0000028985F9A5E985D9A66
:1004B0005C985B985F985F9A5E985D985C985B9A91
:1004C0005F9887EC90E00197F1F700C00000289852
:1004D0005F9A5E985D985C985B985F985F9A5E986B
:1004E0005D985C985B9A5F9887EC90E00197F1F7D4
:1004F00000C0000028985F9A5E985D985C985B98B1
:100500005F985F9A5E9A5D985C985B985F9887ECBD
:1005100090E00197F1F700C000008FE39FE10197A1
:10052000F1F700C0000028985F9A5E985D985C988B
:100530005B985F985F9A5E985D9A5C9A5B985F980B
:1005400087EC90E00197F1F700C0000028985F9ACF
:100550005E985D985C985B985F985F9A5E985D98EE
:100560005C9A5B9A5F9887EC90E00197F1F700C086
:1005700000000895AFE0B0E0E0ECF2E00C94D60BA0
:100580007C013B015A01FC0116821782838181FFA5
:1005900051C39AE0292EF7012381F30123FD8591B0
:1005A00023FF81913F01811509F442C0853239F45E
:1005B00023FD959123FF91913F01953239F4B701C5
:1005C00090E00E945A0D65015601E5CF30E010E041
:1005D000812C912CF0E28F1608F03CC09B3279F10F
:1005E00060F4903271F1933291F19E3209F045C07E
:1005F00086FC1EC0689486F806C09D3229F19033AF
:1006000059F5689480F8F30123FD959123FF9191AA
:100610003F019111DFCF082D097F903709F481C286
:1006200008F077C2983509F47FC29F3609F483C277
:10063000F701868197812F96E2E10C94F20B689482
:1006400081F8689482F8DFCF689483F8DCCF6894EF
:1006500084F8D9CF87FC1BC080ED890F8A3028F63B
:1006600086FE05C0129D800D1124182FCCCF929CC0
:10067000800D1124982E8F2AC6CF9C3619F46894C9
:1006800087F8C1CF9C3409F1983609F4BCCF3115F5
:10069000F1F0892F8F7D8554833008F095C1650175
:1006A00028E0C20ED11C8FE3898301E010E05E01D7
:1006B0003FEFA31AB30AE89487F883FC04C0091536
:1006C000110508F4E8C1592CFEC131E09CCF8BEB39
:1006D000890F833090F4689484F8905E86FE16E06B
:1006E0004FE38422953689F4689486F8212F1830D8
:1006F00010F027E017E0412C14C08BE9890F8330FC
:1007000008F062C1E89484F8E9CF963699F56894C8
:1007100087F8812F1C3308F08BE344244394480E60
:1007200027E0F50161917191819191916F01042D03
:10073000AE014F5F5F4F0E940D0C5C013980832D2D
:1007400089700DE2813029F082FA002705F981FCD9
:100750000BE2F32DFC705F2EF11541F133FA3324D7
:1007600033F801116AC224E0512C921608F47CC2BD
:1007700083E068C220E0111509F4BDCF1150B6CF57
:1007800081108052B70190E00E945A0D0F5F1F4FF9
:10079000F80184918111F4CF511409F415CFB701F8
:1007A00080E290E00E945A0D5A94F6CF87FE2FC047
:1007B000842D8A0D34FE04C09A81913309F481504E
:1007C00044244394181634F4482EF9E08F1710F09F
:1007D00088E0482EC501B7FE02C080E090E0019697
:1007E00001110196111531F0212F30E02F5F3F4F9D
:1007F000820F931F8915910514F4592C581A882DCE
:100800008970A1F551102BC00115C9F131C086FCCA
:1008100023C0E12FF0E01A151B043CF02CEFA216C8
:100820002FEFB20614F0689487F8CE010396E80F14
:10083000F91F01C01150111519F082918033D1F3C5
:1008400087FE0AC044244394410EA116B10414F457
:100850001A19C0CF10E0BECF85E090E0C1CFB7013C
:1008600080E290E00E945A0D5A94CCCF011529F0F5
:10087000B701802F90E00E945A0D83FC02C05110F6
:100880003FC087FE56C04501B7FE02C0812C912CA7
:10089000CE0101968A0D9B1DFC01E819F909EC8730
:1008A000FD879501241931092E873F87012F10E01C
:1008B000119501951109A814B9044CF18E859F85F5
:1008C0008815990524F5EC85FD858181F1E08F1A65
:1008D000910880169106ECF02C853D852F5F3F4FE7
:1008E0002C873D87B70190E00E945A0D3FEF831699
:1008F000980409F7B7018EE290E00E945A0DDBCF11
:10090000B70180E390E00E945A0D5A94B8CF80E37B
:10091000DDCFA814B90431F49A81953318F039F475
:1009200034FE05C0B70190E00E945A0D35CF81E337
:10093000F9CF8A81813311F0E89434F8B70190E05F
:100940000E945A0D111124C085E490E084FC02C07D
:1009500085E690E0B7010E945A0DA114B1041CF085
:1009600061F534FE2AC0B194A194B1088DE2B701BB
:1009700090E00E945A0D80E39AE0A916B104FCF4BD
:10098000B70190E00E945A0DB701C501C096CCCFC7
:10099000B7018EE290E00E945A0D1E5F02E0802FA8
:1009A0000F5FFE013196E80FF11D8081B70190E0E5
:1009B0000E945A0D0113F3CFC7CF8BE2D8CF8F5FC0
:1009C0004AE0A41AB108D8CF9336B9F1933709F4A5
:1009D00042C0933509F44EC0943619F0993609F0A7
:1009E0007EC0F50187FE73C06191719181919191F3
:1009F0006F01082D0F7697FF03C00E94C80B006897
:100A00002AE030E05E01FFEFAF1ABF0AA5010E94A5
:100A1000B80DB82EBA1806FF98C0802F8E7FB11679
:100A200008F092C004FFE4C002FDD8C00E7E512E33
:100A3000802F867809F494C0D6C06501E2E0CE0E1E
:100A4000D11CF5018081898301E010E05E01FFEF98
:100A5000AF1ABF0A30CEF501A190B1906F01612F9E
:100A600070E086FC02C06FEF7FEFC5010E94130D9E
:100A70008C0121CEF501A190B1906F01612F70E042
:100A800086FC02C06FEF7FEFC5010E94080D8C014C
:100A9000689487F812CEB70180E290E00E945A0D68
:100AA0009A940DCEF50187FC859187FE81915F01B7
:100AB000B70190E00E945A0D81E0511001C080E022
:100AC000581A015011090115110561F765CE6191A0
:100AD00071916F01872F880F880B982F8ACF9537D8
:100AE00009F099CD082D0F7E2AE030E0F50107FFCF
:100AF00025C061917191819191916F015E01FFEF2C
:100B0000AF1ABF0AA5010E94B80DB82EBA180F7708
:100B100082CF983709F08CCD84FC04C020E130E00E
:100B2000E5CF00610460FACF84FE02C0082D0660A4
:100B300020E132E0DBCF28E030E0D8CF6191719145
:100B40006F0180E090E0DACF082F5B2C04FF70CFBC
:100B5000FE01EB0DF11D8081803309F042C0097E5A
:100B600003FD0EC000FF50C01B2D591418F4190DC1
:100B70001519592C892D8519951408F480E0580E03
:100B8000591408F043C09518592C04FF41C0B7010F
:100B900080E390E00E945A0D02FF09C088E590E0D2
:100BA00001FD02C088E790E0B7010E945A0DB1161E
:100BB000D0F18E010F5F1F4FBA949E012E5F3F4F01
:100BC0002B0D311D5901F50182915F01B70190E0B4
:100BD0000E945A0DA016B106B1F7DECD512E082F96
:100BE000B7CF02FD02C05394BBCF53945394B8CFF8
:100BF000512E082F1DCFB70180E290E00E945A0DC0
:100C0000A394A914C0F3B6CFA52CFBCF512CBDCF14
:100C1000802F867861F280E201FD8BE207FD8DE294
:100C2000B70190E0C2CFB70180E390E00E945A0D77
:100C30001150BDCF8FEF9FEFFECCF5E0512C9F16EA
:100C400070F084E0592C581A83FC07C0B70180E289
:100C500090E00E945A0D5A94C9F7011529F0B70186
:100C6000802F90E00E945A0D08E610E0311002C07B
:100C70000CE610E084FA882484F88ACDFC01CA01CD
:100C8000DB0120FD08C023FD05C022FF02C0B383A5
:100C9000A283918380830895A82F862FB92F972F41
:100CA00033E044FD14C034E046FD11C0AC01BD0189
:100CB000DA01FB01AA0FBB1FEE1FFF1F1094D1F733
:100CC0004A0F5B1F6E1F7F1FCA01DB0131E0880FD7
:100CD000991FAA1FBB1F3150D1F7BC01CD01620F74
:100CE000711D811D911D0895A4E0B0E0EAE7F6E0D2
:100CF0000C94E60B89839A8389819A810E941E0D48
:100D00008B839C8397FD0AC00E94EC0C892BA1F772
:100D100069817A818B819C810E94A00D8B819C814D
:100D20002496E2E00C94020CA4E0B0E0EAE9F6E0DC
:100D30000C94DF0B8C016B837C8349835A83F22EE6
:100D40000E941E0DAC0190E04B3221F08D97A1F472
:100D50006894F7F88B819C8101978B839C83892B06
:100D600029F480E02496E9E00C94FB0BC8010E9472
:100D70001E0DAC0197FDF5CFBF2CE894B1F88F2D77
:100D80008073B9F54033A9F5CB80DC8091E0C91AB6
:100D9000D10831F0C8010E941E0DAC0197FF16C0AA
:100DA000E12CF12C6701B7FE08C0F094E094D094D8
:100DB000C094C11CD11CE11CF11C2B2DA601B70154
:100DC00089819A810E943E0681E0CCCF8F7D883553
:100DD00049F58F2D8264B82E8B819C8102978B837D
:100DE0009C83892BE9F2C8010E941E0DAC0197FD7E
:100DF000D7CFE12CF12C670120ED240F2830F0F043
:100E0000B4FC09C02A30D0F0B6FE05C02F7D8FEEAD
:100E1000820F863090F0B801CA010E94A00DB1FE89
:100E2000A0CFC1CFBF2C6894B1F8F6FC03C09F2DB2
:100E30009261B92ECB82DC82DCCF27504B2DB601DC
:100E4000C7010E944C066B017C016894B1F88B814C
:100E50009C8101978B839C83892B09F4A4CFC801C3
:100E60000E941E0DAC0197FFC7CF9DCF4F925F929E
:100E70007F928F929F92AF92BF92CF92DF92EF922A
:100E8000FF920F931F93CF93DF93CDB7DEB7A09759
:100E90000FB6F894DEBF0FBECDBF4C016B017A01D7
:100EA0005E018FEFA81AB80A80E2F50111928A95C7
:100EB000E9F7F4017380890140E050E0B0E020E000
:100EC000A0E061E070E0F80173FC959173FE9191F0
:100ED000892F8F01911119C000E010E0C801A09680
:100EE0000FB6F894DEBF0FBECDBFDF91CF911F913B
:100EF0000F91FF90EF90DF90CF90BF90AF909F90B9
:100F00008F907F905F904F9008959E3519F4411512
:100F1000510529F1A4171506E4F49D3541F19D32E0
:100F2000C1F4211501F1E82FE695E695E695EA0D65
:100F3000FB2DF11D282F27702B0101C0440C2A9591
:100F4000EAF79081942990838B1779F030F48F5FC2
:100F5000EACF2111E8CFB92FE6CF8150E4CFA1E04D
:100F60004F5F5F4FB0CF21E0FBCF20E0F9CF2115DD
:100F700019F08E8180628E83A11561F0F5019E01CA
:100F80002F5D3F4F8081DF01319680958C93E21772
:100F9000F307C1F777247394C4010E941E0D97FDD7
:100FA00015C0E82FE695E695E695EA0DFB2DF11DB7
:100FB000208130E0AC01477002C0359527954A95F5
:100FC000E2F720FD06C0B4010E94A00D711471F07B
:100FD00083CFE114F10419F0F70181937F0181E0DF
:100FE000C81AD108712CC114D104B1F6E114F1046E
:100FF00009F474CFF701108271CF2F923F925F9264
:101000006F927F928F929F92AF92BF92CF92DF9218
:10101000EF92FF920F931F93CF93DF9300D000D0F6
:1010200000D0CDB7DEB76C018B011A010E941E0DF6
:101030008D839E838D8190E02D812B3209F18D97D8
:1010400009F0DCC090E8792E01501040D9F480E01E
:101050000F900F900F900F900F900F90DF91CF9106
:101060001F910F91FF90EF90DF90CF90BF90AF90C6
:101070009F908F907F906F905F903F902F900895FA
:10108000712CE2CFC6010E941E0D8D839E838D813F
:101090009E8197FDDCCF8D819E810E94F50C893663
:1010A000910509F4D5C08E36910509F4ECC0A12C48
:1010B000B12C450174012D812053572C2A3008F0A2
:1010C00002C1689451F872FEE5C073FC03C0FFEFE3
:1010D000EF1AFF0A0150104049F0C6010E941E0D90
:1010E0008D839E838D819E8197FFD2C051FEAFCFAD
:1010F0008D818F7D853409F053C0380191E0691AE4
:10110000710809F4A4CFC6010E941E0D8D839E8331
:10111000ED81FE81F7FD9BCF8E2F90E0EB3221F029
:101120008D9769F4689454F8025011093801012B25
:1011300009F48DCFC6010E941E0D8D839E838D8183
:101140009E810E94E50C892B09F481CF00E010E01C
:10115000B801110F880B982F2D81205340E20E9477
:101160004C0669837A838B839C8309811A8121E0F1
:10117000621A710859F0C6010E941E0D8D839E836C
:101180008D819E810E94E50C892B11F754FE05C0CC
:1011900009811A81119501951109E00EF11E830153
:1011A000012B39F08D819E8197FD03C0B6010E940D
:1011B000A00DB401C5010E948E0A9B01AC01F7FE8F
:1011C0008AC0F194E194F108EFE4FDE1E983FA8348
:1011D000C980DA8098E1C91AD10800E210E0E0166F
:1011E000F10608F07DC016950795E981FA813497DC
:1011F000E983FA83EC15FD0591F722C0712C4BCFE2
:10120000E981FA81E017F10771F0C6010E941E0D15
:101210009C0197FD08C00E94F50CF81609F1B60173
:10122000C9010E94A00D89819A818C539C4109F0CB
:101230000ECF80E090E0A0E8BFE79C01AD01572C05
:1012400057FC50582114310409F057C081E000CFF9
:1012500089E39CE189839A8389819A81080F191F08
:10126000E981FA813196E983FA833197F490F1109C
:10127000C7CF89819A8189539C41D9F680E090E05B
:10128000A0ECBFE7DACFE6E3FCE1E983FA83E4CF41
:10129000752C11CF73FE03C081E0E81AF10840E21B
:1012A000B401C5010E944C064B015C0198E9891606
:1012B00099E99906A90699E1B90608F40BCFE72D3B
:1012C000E6605E2E07CF2E3F09F010CF73FC0ECFE5
:1012D000689453F8FFCE87E69DE189839A8378CF9F
:1012E000E981FA8165917591859195910E94C60A6F
:1012F0009B01AC01E01AF10A72CFF1012083318326
:1013000042835383A3CFA0E0B0E0E9E8F9E00C9476
:10131000DB0B5C01EB01842E752EFC01168217821B
:10132000912CF501F380FE01F3FC0591F3FE019190
:10133000EF010115F1F0802F90E00E94EC0C892B59
:1013400021F0C5010E947406ECCF053241F4FE0184
:10135000F3FC1591F3FE1191EF01153269F4C5010B
:101360000E941E0D97FD8FC00817D9F2B5010E948B
:10137000A00D892D90E08BC000E01A3231F4F3FC0F
:101380001591F3FE1191EF0101E0C12CD12C20ED5C
:10139000210F2A3048F101FF36C0C114D10449F3AE
:1013A0001836A9F11C3609F43CC0111511F3612F50
:1013B00070E080E790E00E94FD0C892BD1F2E12CD7
:1013C000F12C00FD06C0E82DF72DE190F1908E2E56
:1013D0007F2E1E3671F5F5014681578160E0202F82
:1013E000C7010E943E069DCF0260B60180E090E0FA
:1013F00040E20E944C066B01FE01F3FC1591F3FEE6
:101400001191EF01C4CF9FEFD92ECD2CC9CFFE0192
:10141000F3FC1591F3FE1191EF01183609F0C5CFD9
:1014200008600460FE01F3FC1591F3FE1191EF01D9
:10143000BCCF1336C1F401FD03C081E0C82ED12C0E
:10144000C5010E941E0D97FD1EC0E114F10419F0A4
:10145000F70181937F01F1E0CF1AD10889F700FDF0
:1014600060CF93945ECF1B35B9F49E01A701B601FE
:10147000C5010E943607EC01892B89F7F5018381AC
:10148000807309F476CF8FEF9FEF911072CFCDB7B5
:10149000DEB7EDE00C94F70BC5010E94740697FDD2
:1014A000F2CF183541F11456153190F5E12FF0E0E7
:1014B000EA54F14F0C94D00BE114F10419F0F70148
:1014C00021937F01F1E0CF1AD10871F0C5010E948C
:1014D0001E0D9C0197FD08C00E94EC0C892B61F346
:1014E000B501C9010E94A00DE114F10409F4B7CFC0
:1014F000F7011082B4CF0064202FA701B601C50107
:101500000E9494068115B9CF0062F6CF0061F4CF36
:10151000A701B601C5010E94FD07F4CFE89404C0FD
:1015200097FB16F40E94C80B9923A9F0F92F96E9AE
:10153000BB279395F695879577956795B795F111A4
:10154000F8CFFAF4BB0F11F460FF1BC06F5F7F4F41
:101550008F4F9F4F16C0882311F096E911C0772353
:1015600021F09EE8872F762F05C0662371F096E85C
:10157000862F70E060E02AF09A95660F771F881F2B
:10158000DAF7880F9695879597F908950E94D90AFA
:101590000C944A0B0E943C0B38F00E94430B20F045
:1015A000952311F00C94330B0C94390B11240C94EB
:1015B0007E0B0E945B0B70F3959FC1F3950F50E07B
:1015C000551F629FF001729FBB27F00DB11D639FF5
:1015D000AA27F00DB11DAA1F649F6627B00DA11D9B
:1015E000661F829F2227B00DA11D621F739FB00D41
:1015F000A11D621F839FA00D611D221F749F3327B1
:10160000A00D611D231F849F600D211D822F762F49
:101610006A2F11249F5750409AF0F1F088234AF026
:10162000EE0FFF1FBB1F661F771F881F9150504092
:10163000A9F79E3F510580F00C94330B0C947E0B60
:101640005F3FE4F3983ED4F3869577956795B79519
:10165000F795E7959F5FC1F7FE2B880F911D969533
:10166000879597F9089597F99F6780E870E060E0A3
:1016700008959FEF80EC089500240A94161617062B
:1016800018060906089500240A9412161306140673
:1016900005060895092E0394000C11F4882352F0D6
:1016A000BB0F40F4BF2B11F460FF04C06F5F7F4F8E
:1016B0008F4F9F4F089557FD9058440F551F59F075
:1016C0005F3F71F04795880F97FB991F61F09F3F2F
:1016D00079F087950895121613061406551FF2CF58
:1016E0004695F1DF08C0161617061806991FF1CFA8
:1016F00086957105610508940895E894BB276627CF
:101700007727CB0197F908950E9416020E94E20103
:1017100082E191E020E630E020931A0130931B0132
:1017200010921C0110921D0122E0209315011092CD
:101730001E0110921F018093240190932501809334
:1017400022019093230180E091E09F938F930E9468
:101750008A0D0F900F90C0E0D0E00DE011E061E045
:1017600080E00E949A01DF93CF931F930F930E9412
:101770008A0D9FEF23ED80E3915020408040E1F7F8
:1017800000C000000F900F900F900F902196E7CFB0
:1017900090958095709561957F4F8F4F9F4F0895DD
:1017A000EE0FFF1F0590F491E02D09942F923F92C8
:1017B0004F925F926F927F928F929F92AF92BF9261
:1017C000CF92DF92EF92FF920F931F93CF93DF930D
:1017D000CDB7DEB7CA1BDB0B0FB6F894DEBF0FBE6A
:1017E000CDBF09942A88398848885F846E847D84B7
:1017F0008C849B84AA84B984C884DF80EE80FD80B9
:101800000C811B81AA81B981CE0FD11D0FB6F8942E
:10181000DEBF0FBECDBFED010895283008F027E0F0
:101820003327DA01990F311D87FD9160009661051C
:10183000710539F432602E5F3D9330E32A95E1F76C
:1018400008959F3F30F080387105610509F03C5FD5
:101850003C5F3D93913008F08068911DDF93CF93FA
:101860001F930F93FF92EF92192F987F9695E92F70
:1018700096959695E90FFF27E556F34E992733275E
:10188000EE24FF24A701E70105900894079428F4AB
:10189000360FE71EF81E491F511D660F771F881F60
:1018A000991F0694A1F70590079428F4E70EF81EF7
:1018B000491F561FC11D770F881F991F661F069469
:1018C000A1F70590079428F4F80E491F561FC71F6B
:1018D000D11D880F991F661F771F0694A1F70590E9
:1018E000079420F4490F561FC71FD81F990F661F72
:1018F000771F881F0694A9F784911095177041F0FF
:10190000D695C79557954795F794E7941A95C1F7DB
:10191000E1E4FCE1689415901591359165919591FC
:1019200005907FE27395E118F10A430B560BC90B42
:10193000D009C0F7E10CF11E431F561FC91FD01D6F
:101940007EF4703311F48A95E6CFE894015030F0BC
:10195000080F0AF40027021708F4202F2395022FFE
:101960007A3328F079E37D932A95E9F710C07D93C7
:101970002A9589F606949795679537951795179444
:10198000E118F10A430B560BC90BD00998F02395C7
:101990007E9173957A3308F070E37C932013B8F747
:1019A0007E9170617D9330F0839571E37D9370E358
:1019B0002A95E1F71124EF90FF900F911F91CF919D
:1019C000DF91992787FD9095089591110C94160E3B
:1019D00080538A50D8F7089591110C94160E8032D6
:1019E00019F089508550C8F70895911108958154D0
:1019F0008A5108F4805E855A0895FC010590061608
:101A000021F00020D9F7C00108953197CF01089542
:101A1000FC010590615070400110D8F780959095B9
:101A20008E0F9F1F0895FC016150704001900110BE
:101A3000D8F7809590958E0F9F1F0895CF93DF93D1
:101A4000EC018B8180FF18C086FF0CC08F7B8B83DD
:101A50008E819F8101968E839F838A8190E0DF91A2
:101A6000CF91089582FF16C0E881F9819081292FD6
:101A7000911105C080628B838FEF9FEFF0CF31967D
:101A8000E883F9838E819F8101968E839F83822FC5
:101A900090E0E5CFEA85FB85CE0109959C0197FF93
:101AA000F1CF8B812F3F3F4F19F490E1892BE3CF8A
:101AB00090E2FCCF0F931F93CF93DF93182F092F42
:101AC000EB018B8181FD09C00FEF1FEF812F902F5C
:101AD000DF91CF911F910F91089582FF14C02E8145
:101AE0003F818C819D81281739073CF4E881F98179
:101AF000CF0101968883998310838E819F810196FF
:101B00008E839F83E3CFE885F985812F0995892B03
:101B1000A1F3DACFA0E0B0E0E0E9FDE00C94E60B41
:101B2000AE014B5F5F4FFA0161917191AF018091FE
:101B30002201909123010E94BA02E2E00C94020C6F
:101B4000FB012381322F3174313079F48F3F9807B4
:101B500071F082832F7D2064238326813781215079
:101B600031092683378390E008958FEF9FEF089522
:101B7000FA01AA27283051F1203181F1E8946F93BE
:101B80006E7F6E5F7F4F8F4F9F4FAF4FB1E03ED064
:101B9000B4E03CD0670F781F891F9A1FA11D680F02
:101BA000791F8A1F911DA11D6A0F711D811D911D35
:101BB000A11D20D009F468943F912AE0269F1124AA
:101BC0003019305D3193DEF6CF010895462F47700E
:101BD000405D4193B3E00FD0C9F7F6CF462F4F7069
:101BE000405D4A3318F0495D31FD4052419302D0C7
:101BF000A9F7EACFB4E0A69597958795779567956D
:101C0000BA95C9F700976105710508959B01AC016C
:101C10000A2E06945795479537952795BA95C9F793
:101C2000620F731F841F951FA01D08959927882791
:101C30000895F894FFCF616E006E66696E697479DD
:101C40000000407A10F35A00A0724E18090010A547
:101C5000D4E80000E87648170000E40B54020000C6
:101C6000CA9A3B000000E1F505000080969800004C
:101C70000040420F000000A0860100000010270075
:101C8000000000E803000000006400000000000AFB
:101C900000000000000100000000002C76D888DC65
:101CA000674F0823DFC1DFAE59E1B1B796E5E3E442
:101CB00053C63AE651997696E8E6C28426EB898CBB
:101CC0009B62ED407C6FFCEFBC9C9F40F2BAA56F1D
:101CD000A5F490055A2AF75C936B6CF9676DC11BEC
:101CE000FCE0E40D47FEF520E6B500D0ED902E03B4
:101CF00000943577050080841E080000204E0A00FD
:101D00000000C80C333333330F986E12831141EF48
:101D10008D2114893BE65516CFFEE6DB18D1844BA6
:101D2000381BF77C1D901DA4BBE424203284725E16
:101D3000228100C9F124ECA1E53D27CDCCCC3D0AA0
:101D4000D7233C17B7D13877CC2B329595E6241F93
:101D5000B14F0A000020410000C84200401C46204C
:101D6000BCBE4CCA1B0E5AAEC59D7400840A880ABC
:101D7000880A880A880A7C0A880A880A880A880ADF
:101D8000880A860A7B0A880A880A660A880A840AF8
:061D9000880A880A7B0AA4
:101D960048656C6C6F20776F726C642100252E3558
:021DA6007500C6
:00000001FF
