S00C00007A6164312E73726563A8
S11300000C9441000C945E000C945E000C945E0011
S11300100C945E000C945E000C945E000C945E00E4
S11300200C945E000C945E000C945E000C945E00D4
S11300300C945E000C945E000C945E000C945E00C4
S11300400C945E000C945E000C945E000C945E00B4
S11300500C945E000C945E000C945E000C945E00A4
S11300600C945E000C945E006E616E00696E660016
S11300706364696E6F70737578585B65666745462F
S1130080470011241FBECFEFD8E0DEBFCDBF11E083
S1130090A0E0B1E0E0EBF8E202C005900D92A038D8
S11300A0B107D9F721E0A0E8B1E001C01D92A4395D
S11300B0B207E1F70E94B30C0C94BB130C9400003C
S11300C09091C00095FFFCCF8093C60080E090E043
S11300D008958091C00087FFFCCF8091C60090E016
S11300E0089587E690E09093C5008093C400109231
S11300F0C00088E18093C10086E08093C200089527
S113010081E0809381000895CF93DF9300D0CDB731
S1130110DEB782E08A838983E4E8F0E020813181DC
S11301208A819981890F8A8380819181821B930BB3
S11301300F900F90DF91CF910895CF93DF9300D06C
S113014000D0CDB7DEB782E090E09C838B839A83A6
S11301508983E4E8F0E0208131818B819C814981AD
S11301605A81840F951F9C838B8380819181821B8C
S1130170930B0F900F900F900F90DF91CF910895F4
S1130180CF93DF93CDB7DEB728970FB6F894DEBFD1
S11301900FBECDBF82E090E0A0E0B0E08D839E83EF
S11301A0AF83B88789839A83AB83BC83E4E8F0E0A8
S11301B0208131818D819E81AF81B88549815A81A9
S11301C06B817C81840F951FA61FB71F8D839E832F
S11301D0AF83B88780819181821B930B28960FB6D9
S11301E0F894DEBF0FBECDBFDF91CF910895AF92DB
S11301F0BF92CF92DF92EF92FF920F931F93CF9310
S1130200DF93CDB7DEB760970FB6F894DEBF0FBEAD
S1130210CDBF82E089871A861B861C861D861E86B2
S11302201F86188A89831A821B821C821D821E8261
S11302301F821886E4E8F0E0A081B18129853A851F
S11302404B855C856D857E858F859889A980BA806C
S1130250CB80DC80ED80FE800F8118850E945510D4
S113026029873A874B875C876D877E878F87988B32
S1130270808191818A1B9B0B60960FB6F894DEBF38
S11302800FBECDBFDF91CF911F910F91FF90EF90E3
S1130290DF90CF90BF90AF900895EF92FF920F93AD
S11302A01F93CF93DF93CDB7DEB728970FB6F8949B
S11302B0DEBF0FBECDBF80E090E0A0E0B0E48D8350
S11302C09E83AF83B88789839A83AB83BC8304E816
S11302D010E0F801E080F1806D817E818F81988546
S11302E029813A814B815C810E94A410AB01BC013D
S11302F04D835E836F837887F801808191818E19A5
S11303009F0928960FB6F894DEBF0FBECDBFDF91CC
S1130310CF911F910F91FF90EF900895CF93DF93AA
S113032000D0CDB7DEB782E08A838983E4E8F0E0C9
S1130330208131818A819981899F802D11248A832A
S113034080819181821B930B0F900F90DF91CF914D
S11303500895CF93DF9300D000D0CDB7DEB782E00D
S113036090E09C838B839A838983E4E8F0E0208186
S113037031816B817C8149815A81649FC001659F71
S1130380900D749F900D11249C838B8380819181A7
S1130390821B930B0F900F900F900F90DF91CF91D2
S11303A008950F931F93CF93DF93CDB7DEB72897AC
S11303B00FB6F894DEBF0FBECDBF82E090E0A0E0A0
S11303C0B0E08D839E83AF83B88789839A83AB83A0
S11303D0BC83E4E8F0E0008111812D813E814F81EE
S11303E0588569817A818B819C810E94D80E6D83A6
S11303F07E838F83988780819181801B910B2896BF
S11304000FB6F894DEBF0FBECDBFDF91CF911F9121
S11304100F9108958F929F92AF92BF92CF92DF92E5
S1130420EF92FF920F931F93CF93DF93CDB7DEB775
S113043060970FB6F894DEBF0FBECDBF82E0898708
S11304401A861B861C861D861E861F86188A89832B
S11304501A821B821C821D821E821F821886E4E877
S1130460F0E08080918029853A854B855C856D8597
S11304707E858F859889A980BA80CB80DC80ED80C9
S1130480FE800F8118850E94260F29873A874B87A3
S11304905C876D877E878F87988BE4E8F0E08081A6
S11304A091818819990960960FB6F894DEBF0FBE42
S11304B0CDBFDF91CF911F910F91FF90EF90DF900F
S11304C0CF90BF90AF909F908F900895EF92FF923E
S11304D00F931F93CF93DF93CDB7DEB728970FB653
S11304E0F894DEBF0FBECDBF80E090E0A0E0B0E4A2
S11304F08D839E83AF83B88789839A83AB83BC83C0
S113050004E810E0F801E080F1806D817E818F8144
S1130510988529813A814B815C810E94F50BAB015E
S1130520BC014D835E836F837887F801808191815C
S11305308E199F0928960FB6F894DEBF0FBECDBF63
S1130540DF91CF911F910F91FF90EF900895CF937A
S1130550DF9300D0CDB7DEB782E08A838983E4E8F5
S1130560F0E0208131818A816981982F990F990B5C
S1130570762F770F770B0E94E80E6A838081918132
S1130580821B930B0F900F90DF91CF910895CF931F
S1130590DF9300D000D0CDB7DEB782E090E09C833B
S11305A08B839A838983E4E8F0E0208131818B8115
S11305B09C8169817A810E94E80E7C836B838081AF
S11305C09181821B930B0F900F900F900F90DF91EE
S11305D0CF910895EF92FF920F931F93CF93DF93E0
S11305E0CDB7DEB728970FB6F894DEBF0FBECDBFE8
S11305F082E090E0A0E0B0E08D839E83AF83B88773
S113060089839A83AB83BC8304E810E0F801E0801B
S1130610F1806D817E818F81988529813A814B811A
S11306205C810E94FC0E2D833E834F835887F80122
S1130630808191818E199F0928960FB6F894DEBFA8
S11306400FBECDBFDF91CF911F910F91FF90EF901F
S113065008958F929F92AF92BF92CF92DF92EF92C2
S1130660FF920F931F93CF93DF93CDB7DEB76097BD
S11306700FB6F894DEBF0FBECDBF82E089871A861D
S11306801B861C861D861E861F86188A89831A82ED
S11306901B821C821D821E821F821886E4E8F0E001
S11306A08080918029853A854B855C856D857E8522
S11306B08F859889A980BA80CB80DC80ED80FE800C
S11306C00F8118850E94800F29873A874B875C87A2
S11306D06D877E878F87988BE4E8F0E08081918135
S11306E08819990960960FB6F894DEBF0FBECDBF86
S11306F0DF91CF911F910F91FF90EF90DF90CF90FA
S1130700BF90AF909F908F900895EF92FF920F93B8
S11307101F93CF93DF93CDB7DEB728970FB6F89426
S1130720DEBF0FBECDBF80E090E0A0E0B0E48D83DB
S11307309E83AF83B88789839A83AB83BC8304E8A1
S113074010E0F801E080F1806D817E818F819885D1
S113075029813A814B815C810E941011AB01BC015B
S11307604D835E836F837887F801808191818E1930
S11307709F0928960FB6F894DEBF0FBECDBFDF9158
S1130780CF911F910F91FF90EF900895A2E1B0E0F7
S1130790ECECF3E00C941E107C013B018A01FC019B
S11307A017821682838181FF68C3F7012381F301D5
S11307B023FD859123FF81913F01811509F443C0F5
S11307C0853239F423FD959123FF91913F019532B0
S11307D039F4B70190E00E94CF1268018601E5CF99
S11307E030E0512C912C812CF0E28F1608F03DC0A2
S11307F09B3281F160F4903279F1933299F19E3217
S113080009F04AC086FC1FC0689486F806C09D3271
S113081031F1903361F5689480F8F30123FD9591EB
S113082023FF91913F019111DFCF882D897F482EBD
S1130830903709F494C208F08AC2983509F494C236
S11308409F3609F499C2F701868197816296E2E1A5
S11308500C943A10689481F8689482F8DECF689416
S113086083F8DBCF689484F8D8CF87FC1FC080ED71
S1130870890F8A3008F0C3CF86FE06C04AE0549E32
S1130880800D1124582EC9CF5AE0959E800D112455
S1130890982E689485F8C1CF9C3619F4689487F82B
S11308A0BCCF9C3401F1983609F4B7CF3115E9F087
S11308B0892F8F7D8554833008F0A5C1085F1F4FB1
S11308C068018FE3898322242394312C8E010F5FE6
S11308D01F4FE89487F883FC04C02914310408F4FA
S11308E0F9C1492C0DC231E098CF8BEB890F8330CD
S11308F0A8F4689484F8905E86FC02C026E0522E28
S1130900E82DEF738E2E953689F4689486F828E0E6
S1130910521608F044C0252D1E8614C08BE9890F99
S1130920833008F070C1E89484F8E6CF963689F5F0
S1130930689487F8852DFCE35F1608F08BE38F5FDE
S11309408E8727E0F80161917191819191916F01F6
S11309500E85AE014F5F5F4F0E9482115C01F981E9
S1130960F88BF0FF03C01DE2F3FF05C082FA1127E4
S113097015F981FC1BE228892C70422E211549F1BE
S113098011117EC224E0412C921608F490C283E037
S11309907CC220E0511409F4BFCF5A94B8CF27E0A9
S11309A097E0592EB9CF81108052B70190E00E9490
S11309B0CF120F5F1F4FF80184918111F4CF4114BE
S11309C009F40CCFB70180E290E00E94CF124A9460
S11309D0F6CF87FE2FC08E858A0DF889F4FF04C0F8
S11309E09A81913309F4815018160CF048C08E870F
S11309F0893010F028E02E87C501B7FE02C080E0E0
S1130A0090E0019611110196511431F0252D30E03A
S1130A102F5F3F4F820F931F8915910514F4492CC2
S1130A20481A882D8970811139C0411030C01115C0
S1130A30F1F136C086FC28C0E52DF0E05A141B0401
S1130A403CF03CEFA3163FEFB30614F0689487F82C
S1130A503296AE014F5F5F4FE40FF51F01C05A9409
S1130A60511419F082918033D1F387FE0DC051E007
S1130A70550D5E87A514B1042CF45A18BDCF81E03E
S1130A808E87BACF512CB8CF85E090E0BBCFB701A9
S1130A9080E290E00E94CF124A94C7CF111529F04A
S1130AA0B701812F90E00E94CF1283FC02C0411055
S1130AB040C087FE59C04501B7FE02C0812C912C6D
S1130AC0CE0101968A0D9B1DFC01E819F909FA8BE8
S1130AD0E98B95014E85241B31093F872E87052D0F
S1130AE010E0119501951109A814B9044CF18E85F3
S1130AF09F858815990524F5E989FA898181F1E0B2
S1130B008F1A910829893A892F5F3F4F3A8B298B95
S1130B1080169106BCF0B70190E00E94CF123FEF1F
S1130B208316930609F7B7018EE290E00E94CF1274
S1130B30DBCFB70180E390E00E94CF124A94B7CF95
S1130B4080E3DDCFA814B90441F49A81963350F4BC
S1130B50953319F4488944FF05C0B70190E00E9419
S1130B60CF122DCF81E3F9CF8A81813319F05889CF
S1130B705F7E588BB70190E00E94CF12511026C0BF
S1130B8085E490E084FC02C085E690E0B7010E9411
S1130B90CF12B7FC06C0A114B10471F5888984FF93
S1130BA02BC0B194A194B1088DE2B70190E00E94EA
S1130BB0CF1280E3EAE0AE16B10404F5B70190E089
S1130BC00E94CF12B701C501C096C9CFB7018EE20A
S1130BD090E00E94CF125394539412E0812F1F5F30
S1130BE0FE013196E80FF11D8081B70190E00E946B
S1130BF0CF121511F3CFC4CF8BE2D7CF8F5F9AE01A
S1130C00A91AB108D7CF9336F1F1933709F442C04A
S1130C10933509F44EC0943619F0993609F07CC026
S1130C20F80187FE71C061917191819191916F0179
S1130C30082D0F7697FF08C0909580957095619563
S1130C407F4F8F4F9F4F00682AE030E0AE014F5F27
S1130C505F4F5D874C870E945A13182F5C85151BC4
S1130C6006FF94C0802F8E7F151508F08EC004FFF8
S1130C70E1C002FDD5C00E7E452C802F86788115FB
S1130C8009F48FC0D2C06801F2E0CF0ED11CF80184
S1130C90808118CEF801019111916F01652D70E0EA
S1130CA086FC02C06FEF7FEFC8010E9481121C0115
S1130CB010CEF801019111916F01652D70E086FC51
S1130CC002C06FEF7FEFC8010E9476121C01689486
S1130CD087F801CEB70180E290E00E94CF129A9487
S1130CE0FCCDF80187FC859187FE81918F01B701C6
S1130CF090E00E94CF1241104A94F1E02F1A31087B
S1130D002114310471F75BCE619171916F01072E4B
S1130D10000C880B990B8CCF482CE89444F82AE0FB
S1130D2030E0953709F081CDF80147FE28C0619184
S1130D307191819191916F018E010F5F1F4FA801F5
S1130D400E945A13182F101B042D0F7789CF983740
S1130D5009F079CD84FC05C020E130E0E5CF68944A
S1130D6044F8689442F8F8CF84FE03C0982D966046
S1130D70492E20E132E0D8CF28E030E0D5CF619190
S1130D8071916F0180E090E0D7CF082F412E04FFCE
S1130D9074CFFE01E10FF11D8081803309F043C05F
S1130DA0097E03FD0EC000FF51C0512E491418F4F2
S1130DB0590C5418492C892D8419941408F480E092
S1130DC0480E491408F044C09418492C04FF42C04A
S1130DD0B70180E390E00E94CF1202FF09C088E5CA
S1130DE090E001FD02C088E790E0B7010E94CF12B5
S1130DF01515E0F11150012F10E00F5F1F4F9E01F8
S1130E002F5F3F4F4901020F131FF80182918F0199
S1130E10B70190E00E94CF1280169106B1F7CFCDB2
S1130E20452C082FB6CF02FD02C04394BACF439499
S1130E304394B7CF452C082F20CFB70180E290E030
S1130E400E94CF1283948914C0F3B5CF842CFBCFB6
S1130E50412CBCCF802F8678811551F280E201FDB0
S1130E608BE207FD8DE2B70190E0C0CFB70180E3CC
S1130E7090E00E94CF125A94BBCF8FEF9FEFE6CC45
S1130E80F5E0412C9F1670F084E0492C481A83FC4D
S1130E9007C0B70180E290E00E94CF124A94C9F7DC
S1130EA0111529F0B701812F90E00E94CF123889E3
S1130EB008E610E033FD02C00CE610E0482D407156
S1130EC0842E79CDCF92DF92EF92FF92FC016A01DA
S1130ED07B0120FD08C023FD05C022FF02C0F38270
S1130EE0E282D182C082FF90EF90DF90CF9008958C
S1130EF0CF92DF92EF92FF926B017C0183E044FD7D
S1130F0010C084E046FD0DC0D601F701AA0FBB1F37
S1130F10EE1FFF1F1094D1F7CA0EDB1EEE1EFF1E3C
S1130F2081E0CC0CDD1CEE1CFF1C8A95D1F7C701B7
S1130F30B601620F711D811D911DFF90EF90DF902E
S1130F40CF9008950F931F93CF93DF938C01C80123
S1130F500E948C12EC0197FD08C00E945A12892B42
S1130F60B1F7B801CE010E944113CE01DF91CF91B8
S1130F701F910F910895A0E0B0E0E1ECF7E00C942C
S1130F802310D82EE92E8B01742EC52EB22E0E946A
S1130F908C12EC019927CB3221F08D9791F468944F
S1130FA0B7F80150104031F480E0CDB7DEB7EDE082
S1130FB00C943F108D2D9E2D0E948C12EC0197FDF8
S1130FC0F3CFFB2CE894F1F88B2D8073811134C09E
S1130FD0C03391F5480121E0821A910839F08D2D32
S1130FE09E2D0E948C12EC0197FF16C0812C912C2F
S1130FF05401F7FE08C0B094A09490948094811C8E
S1131000911CA11CB11C2F2DB501A401872D9C2D71
S11310100E94620781E0C9CF8F7D883539F58B2D19
S11310208264F82E0250104009F38D2D9E2D0E94EB
S11310308C12EC0197FDDACF812C912C54012C2FCA
S113104020532830F0F0F4FC09C02A30D0F0F6FE2A
S113105005C02F7D8FEE820F863090F06D2D7E2D92
S1131060CE010E944113F1FE9FCFC3CFFB2C6894A5
S1131070F1F8B6FC03C02B2D2261F22E8401DCCFE3
S113108027504F2DC501B4010E9478074B015C0124
S11310906894F1F80150104009F4ABCF8D2D9E2DCA
S11310A00E948C12EC0197FFCACFA3CFA0E2B0E05C
S11310B0ECE5F8E00C9420103C015B017A01CE01D0
S11310C001964C0180E2F40111928A95E9F7F3014B
S11310D0B381890180E090E0A0E050E070E021E07D
S11310E030E0F801B3FD4591B3FF4191642F8F01C6
S11310F0411107C000E010E0C801A096E0E10C94A3
S11311003C104E3511F4009741F178171906FCF4A0
S11311104D3551F14D32D9F4511511F1E62FE695C3
S1131120E695E695E80DF92DF11D462F4770290146
S113113002C0440C551C4A95E2F7A2015081452B8C
S113114040836A1779F06A1730F46F5FE7CF511163
S1131150E5CFA42FE3CF6150E1CF71E00196C1CF79
S113116051E0FCCF50E0FACF511519F08E81806226
S11311708E83711561F0F4019E012F5D3F4F8081D4
S1131180DF01319680958C93E217F307C1F755245C
S11311905394C3010E948C126C0197FD17C0E82F71
S11311A0E695E695E695E80DF92DF11D808190E030
S11311B096012770332702C0959587952A95E2F703
S11311C080FD07C0B301C6010E944113511471F0A0
S11311D091CFE114F10419F0F701C1927F0181E08C
S11311E0A81AB108512CA114B10499F6E114F10420
S11311F009F482CFF70110827FCFA6E0B0E0E3E0EC
S1131200F9E00C941F10C82E392E8B014A010E945C
S11312108C128D839E838D819E8199272D812B3203
S113122069F08D9709F0D2C090E8B92E01501040B2
S113123039F480E02696E1E10C943B10B12CF6CF12
S11312408C2D932D0E948C128D839E838D819E8183
S113125097FDEFCF8D819E810E9463123C0199E638
S11312606916710409F4DCC0EEE66E16710409F423
S1131270F2C0412C512C3201E12CF12C2D81205350
S1131280DB2C2A3008F007C16894D1F88B2D8870C4
S1131290B2FEE8C0811103C0FFEFEF1AFF0A01504C
S11312A0104051F08C2D932D0E948C128D839E83BF
S11312B08D819E8197FFD4C0D1FEBBCF8D818F7D60
S11312C0853409F054C0580191E0A91AB10809F411
S11312D0B0CF8C2D932D0E948C128D839E83ED8133
S11312E0FE81F7FDA6CFCF019927EB3221F08D9730
S11312F071F46894D4F85801F2E0AF1AB10809F413
S113130098CF8C2D932D0E948C128D839E838D817A
S11313109E81C0970A9708F08CCF00E010E0B801D6
S1131320110F880B990B2D81205340E20E947807FE
S113133069837A838B839C8309811A8121E0A21AB1
S1131340B10859F08C2D932D0E948C128D839E83AD
S11313508D819E81C0970A9710F3D4FE05C0098140
S11313601A81119501951109E00EF11E8501012BD9
S113137041F08D819E8197FD04C06C2D732D0E94D8
S11313804113C301B2010E94B80B9B01AC01F7FEEB
S11313908AC0F194E194F108E3E9F8E2FA83E9837D
S11313A0A980BA8098E1A91AB10800E210E0E981A5
S11313B0FA81E016F10608F07BC03497FA83E983DA
S11313C016950795EA15FB0591F722C0B12C42CF7B
S11313D08017910781F08C2D932D0E948C127C0133
S11313E097FD09C00E946312D81611F16C2D732D5C
S11313F0C7010E944113E981FA81E058F74209F0DC
S113140018CF80E090E0A0E8BFE79C01AD01DB2CA1
S1131410D7FC50588114910409F055C081E00ACFDB
S11314208DE797E29A83898389819A81080F191F2E
S1131430E981FA813196FA83E9833197D4908981DD
S11314409A81D110C5CF8D579742D9F680E090E0AC
S1131450A0ECBFE7DACFEAE7F7E2FA83E983E4CF67
S1131460BD2C0CCF811519F081E0E81AF10840E297
S1131470C301B2010E9478072B013C0198E9491687
S113148099E95906690699E1790608F408CFEB2D24
S1131490E660DE2E04CF2E3F09F00ECFB3FC0CCF56
S11314A06894D3F8FCCE8BEA98E29A83898378CF48
S11314B065917591859195910E94F50B9B01AC0105
S11314C0E01AF10A74CFF4012083318342835383F9
S11314D0A5CFA8E0B0E0EFE6FAE00C941E106C0192
S11314E06F8378874B835C83FC0117821682212CDF
S11314F0F6013380EF81F88533FCF59033FEF190EB
S1131500F887EF83F11419F18F2D90E00E945A129D
S1131510892B21F0C6010E94A207EACFF5E2FF124F
S11315200BC0EF81F88533FC559033FE5190F8875A
S1131530EF8385E258120EC0C6010E948C124C0142
S113154097FDB2C0F816A1F2B6010E944113822D94
S113155090E0AEC09AE2412C59120AC0EF81F8859E
S113156033FC559033FE5190F887EF834424439421
S1131570E12CF12C20ED250D2A3080F141FE43C0F1
S1131580E114F10421F3E8E65E1609F440C0FCE638
S11315905F1609F449C05114D1F2652D70E080E75B
S11315A090E00E946B12892B91F200E010E040FC65
S11315B008C0AB80BC80F501019111915F01EB8300
S11315C0BC82FEE65F123BC0F6014681578160E0B3
S11315D070E0242DC8010E9462078ACF689441F804
S11315E0B70180E090E040E20E9478076D837E833B
S11315F0ED80FE80EF81F88533FC559033FE5190E9
S1131600F887EF83B7CFEE24EA94FE2CBCCFEF81AA
S1131610F88533FC559033FE5190F887EF8388E6C4
S11316205812B9CF689443F8689442F8EF81F8856A
S113163033FC559033FE5190F887EF83ACCFF3E63B
S11316405F121CC041FC03C0EE24E394F12CC601DC
S11316500E948C1289839A8389819A8197FD24C080
S11316600115110519F0F80181938F0191E0E91A30
S1131670F10869F740FC3CCF23943ACFEBE55E12C6
S11316801BC02F813885A801B701C6010E945608E6
S11316908F8398878F819885892B61F7F6018381E1
S11316A08073811509F453CF8FEF9FEF21104FCF33
S11316B02896E2E10C943A10C6010E94A20797FD15
S11316C0F3CFFFE65F1609F450C080E7581690F494
S11316D099E65916D1F0EAE65E1630F4F8E55F169D
S11316E091F084E65816F1F1A801B701C6010E94F1
S11316F0FD0811C093E7591601F1E4E75E1668F49A
S1131700F0E75F1689F7689446F8242DA801B7011D
S1131710C6010E94BB078115C0CF85E7581611F199
S113172098E75916EFCF0115110519F0F8016192E8
S11317308F01E1E0EE1AF10871F0C6010E948C12EB
S11317403C0197FD08C00E945A12892B61F3B6012F
S1131750C3010E9441130115110509F48BCFF8014F
S1131760108288CF689445F8D0CF689444F8CDCFE0
S1131770E89409C097FB3EF4909580957095619527
S11317807F4F8F4F9F4F9923A9F0F92F96E9BB27DD
S11317909395F695879577956795B795F111F8CF59
S11317A0FAF4BB0F11F460FF1BC06F5F7F4F8F4FC4
S11317B09F4F16C0882311F096E911C0772321F0BA
S11317C09EE8872F762F05C0662371F096E8862F52
S11317D070E060E02AF09A95660F771F881FDAF7A9
S11317E0880F9695879597F908950E94080C0C9494
S11317F0790C0E946B0C38F00E94720C20F0952337
S113180011F00C94620C0C94680C11240C94AD0C23
S11318100E948A0C70F3959FC1F3950F50E0551FF9
S1131820629FF001729FBB27F00DB11D639FAA2731
S1131830F00DB11DAA1F649F6627B00DA11D661F80
S1131840829F2227B00DA11D621F739FB00DA11DA1
S1131850621F839FA00D611D221F749F3327A00D5B
S1131860611D231F849F600D211D822F762F6A2FF7
S113187011249F5750409AF0F1F088234AF0EE0F5C
S1131880FF1FBB1F661F771F881F91505040A9F789
S11318909E3F510580F00C94620C0C94AD0C5F3F9C
S11318A0E4F3983ED4F3869577956795B795F795C5
S11318B0E7959F5FC1F7FE2B880F911D969587953D
S11318C097F9089597F99F6780E870E060E00895BC
S11318D09FEF80EC089500240A9416161706180644
S11318E00906089500240A94121613061406050620
S11318F00895092E0394000C11F4882352F0BB0FB1
S113190040F4BF2B11F460FF04C06F5F7F4F8F4F13
S11319109F4F089557FD9058440F551F59F05F3F4E
S113192071F04795880F97FB991F61F09F3F79F0FD
S113193087950895121613061406551FF2CF46957F
S1131940F1DF08C0161617061806991FF1CF869501
S11319507105610508940895E894BB2766277727E5
S1131960CB0197F90895CDB7DEB7C454D1090FB6AA
S1131970F894DEBF0FBECDBF87E690E09093C5001C
S11319808093C4001092C00088E18093C10086E077
S11319908093C200E0E8F1E080E690E080879187E0
S11319A089E690E08287938783E083831486158693
S11319B0E0939201F0939301E0939001F0939101ED
S11319C0E0938E01F0938F0181E08093810080E0A9
S11319D091E00E94151382E0382E3EAE3DAE04E83D
S11319E010E0D8012D913D9112978EAD9DAD890FD8
S11319F08EAF8D919D91821B930B9F938F93ECE0FF
S1131A00F1E0FF93EF930E94FF12B12CA32CBCAA28
S1131A10ABAABAAAA9AAD8012D913D9112978BA974
S1131A209CA949A95AA9840F951F9CAB8BAB8D9196
S1131A309D91821B930B9F938F93EEE1F1E0FF93B3
S1131A40EF930E94FF12612C712C25014D825E825E
S1131A506F82788649825A826B827C82D8012D916A
S1131A603D918D819E81AF81B88549815A816B8179
S1131A707C81840F951FA61FB71F8D839E83AF8320
S1131A80B887F80180819181821B930B9F938F9378
S1131A9021E331E03F932F930E94FF120E94F7004D
S1131AA09F938F93A4E4B1E0BF93AF930E94FF127E
S1131AB0630173016894F6F8CD86DE86EF86F88AB2
S1131AC0C986DA86EB86FC86D8018D909D906D855B
S1131AD07E858F85988929853A854B855C850E940A
S1131AE0A410AB01BC014D875E876F87788BF8012A
S1131AF080819181881999099F938F9347E5842E5A
S1131B0041E0942E9F928F920E94FF1288E691E00A
S1131B100E94151321963FAE21973FAED8012D9117
S1131B203D91129721968FAD21979FAD899F802D6E
S1131B30112421968FAF21978D919D91821B930B38
S1131B409F938F93ECE0F1E0FF93EF930E94FF12D9
S1131B50B8AEAFAABEAAADAAD8012D913D911297F5
S1131B606FA978AD4DA95EA9649FC001659F900DD2
S1131B70749F900D112498AF8FAB8D919D91821B12
S1131B80930B9F938F93EEE1F1E0FF93EF930E9409
S1131B90FF124D8A5E8A6F8A788E498A5A8A6B8AC6
S1131BA07C8AD801ED91FD912D893E894F89588D0C
S1131BB069897A898B899C890E94D80E6D8B7E8B6A
S1131BC08F8B988FD8018D919D918E1B9F0B9F9326
S1131BD08F93E1E3F1E0FF93EF930E94FF120FB6BE
S1131BE0F894DEBF0FBECDBF0E940A029F938F936D
S1131BF0A4E4B1E0BF93AF930E94FF12CD8EDE8EBA
S1131C00EF8EF8A2C98EDA8EEB8EFC8ED8010D9081
S1131C10BC91A02D2596BFAFAEAF25976D8D7E8D5F
S1131C208F8D98A1298D3A8D4B8D5C8D0E94F50B7B
S1131C30AB01BC014D8F5E8F6F8F78A3F80180815B
S1131C40918125962EAD3FAD2597821B930B9F93D3
S1131C508F939F928F920E94FF1284E791E00E94DB
S1131C60151323963FAE239722963FAE2297D801B1
S1131C702D913D9123968FAD239722966FAD229798
S1131C80982F990F990B762F770F770B0E94E80EF8
S1131C9023966FAF2397F80180819181821B930B68
S1131CA09F938F932CE031E03F932F930E94FF1278
S1131CB0BCAEABAEBAAEA9AED8012D913D918BAD01
S1131CC09CAD69AD7AAD0E94E80E7CAF6BAFF801B4
S1131CD080819181821B930B9F938F932EE131E03E
S1131CE03F932F930E94FF124DA25EA26FA278A68B
S1131CF049A25AA26BA27CA2D801AD90BD906DA15D
S1131D007EA18FA198A529A13AA14BA15CA10E9413
S1131D10FC0E2DA33EA34FA358A7F8018081918107
S1131D208A199B099F938F9321E331E03F932F936B
S1131D300E94FF120E9429039F938F93A4E4B1E0B1
S1131D40BF93AF930E94FF12CDA6DEA6EFA6F8AA1A
S1131D50C9A6DAA6EBA6FCA6D801ED90FD906DA568
S1131D607EA58FA598A929A53AA54BA55CA50E9497
S1131D701011AB01BC014DA75EA76FA778ABF801AA
S1131D80808191818E199F099F938F939F928F9247
S1131D900E94FF120FB6F894DEBF0FBECDBFC30181
S1131DA0CC5BDF4F0FB6F894DEBF0FBECDBF0895F6
S1131DB0DB018F939F930E941B0FBF91AF91A29F52
S1131DC0800D911DA39F900DB29F900D1124089535
S1131DD097FB072E16F4009407D077FD09D00E94D4
S1131DE06D1007FC05D03EF4909581959F4F0895A2
S1131DF0709561957F4F0895052E97FB1EF400940E
S1131E000E94130F57FD07D00E94811007FC03D0D6
S1131E104EF40C94130F50954095309521953F4FF7
S1131E204F4F5F4F089590958095709561957F4FC2
S1131E308F4F9F4F08950E945E10A59F900DB49FF1
S1131E40900DA49F800D911D11240895DF93CF93CD
S1131E501F930F939A9DF02D219FF00D8B9DF00DF4
S1131E608A9DE02DF10D039FF00D029FE00DF11D01
S1131E704E9DE00DF11D5E9DF00D4F9DF00D7F9385
S1131E806F93BF92AF925F934F93D5010E945E1000
S1131E908B01AC01D7010E945E10EB01E80FF91F22
S1131EA0D6010E94750F2F913F91D6010E945E10BA
S1131EB0C60FD71FE81FF91FAF91BF910E94750F7E
S1131EC02F913F910E945E10C60FD71FE81FF91F84
S1131ED0D6010E945E10E60FF71F9801BE01CF01E4
S1131EE00F911F91CF91DF9108950E945E10460FCC
S1131EF0571FC81FD91F08F431960895689401C06C
S1131F00E894F92FF12B12F00C94B20FA0E0B0E09A
S1131F10ECE8FFE00C942410092E059422F40E94AE
S1131F200E10112392F4F0E80F26FFEFE094F094E2
S1131F3000951095B094C094D094A194BF0ACF0A90
S1131F40DF0AEF0AFF0A0F0B1F0B0E94BD0F07FCED
S1131F500E940E10CDB7DEB7ECE00C9440106894EC
S1131F6001C0E8948F929F92CF93DF930E94BD0F9C
S1131F70DF91CF919F908F90089588249924F40144
S1131F80E401B0E49F93AA279A158B049C04ED0501
S1131F90FE05CF05D007A10798F4AD2FDC2FCF2F76
S1131FA0FE2FE92D982C892E982F872F762F652FB9
S1131FB0542F432F322F2227B85031F7BF9127C017
S1131FC01B2EBF91BB27220F331F441F551F661FB3
S1131FD0771F881F991F881C991CEE1FFF1FCC1F99
S1131FE0DD1FAA1FBB1F8A149B04EC05FD05CE054B
S1131FF0DF05A007B10748F08A189B08EC09FD0922
S1132000CE09DF09A00BB10B21601A94E1F62EF47E
S11320109401AF01BE01CD01000C08956095709547
S11320208095909530954095509521953F4F4F4F11
S11320305F4F6F4F7F4F8F4F9F4F08952F923F9267
S11320404F925F926F927F928F929F92AF92BF92C4
S1132050CF92DF92EF92FF920F931F93CF93DF9370
S1132060CDB7DEB7CA1BDB0B0FB6F894DEBF0FBECD
S1132070CDBF09942A88398848885F846E847D841A
S11320808C849B84AA84B984C884DF80EE80FD801C
S11320900C811B81AA81B981CE0FD11D0FB6F89492
S11320A0DEBF0FBECDBFED0108952A0D3B1D4C1DB3
S11320B05D1D6E1D7F1D801F911F0895A29FB0019D
S11320C0B39FC001A39F700D811D1124911DB29F68
S11320D0700D811D1124911D0895AA1BBB1B51E194
S11320E007C0AA1FBB1FA617B70710F0A61BB70B84
S11320F0881F991F5A95A9F780959095BC01CD0129
S11321000895A1E21A2EAA1BBB1BFD010DC0AA1F34
S1132110BB1FEE1FFF1FA217B307E407F50720F04C
S1132120A21BB30BE40BF50B661F771F881F991FC7
S11321301A9469F760957095809590959B01AC0110
S1132140BD01CF0108955058BB27AA270E94BB1098
S11321500C94790C0E946B0C38F00E94720C20F0E5
S113216039F49F3F19F426F40C94680C0EF4E095AE
S1132170E7FB0C94620CE92F0E948A0C58F3BA17FF
S1132180620773078407950720F079F4A6F50C9489
S1132190AC0C0EF4E0950B2EBA2FA02D0B01B90157
S11321A090010C01CA01A0011124FF27591B99F0C9
S11321B0593F50F4503E68F11A16F040A22F232FD5
S11321C0342F4427585FF3CF469537952795A79525
S11321D0F0405395C9F77EF41F16BA0B620B730BCC
S11321E0840BBAF09150A1F0FF0FBB1F661F771F3D
S11321F0881FC2F70EC0BA0F621F731F841F48F4F2
S1132200879577956795B795F7959E3F08F0B0CF7A
S11322109395880F08F09927EE0F97958795089561
S11322200E9424110C94790C0E94720C58F00E94A4
S11322306B0C40F029F45F3F29F00C94620C5111AF
S11322400C94AD0C0C94680C0E948A0C68F39923CE
S1132250B1F3552391F3951B550BBB27AA2762179E
S11322607307840738F09F5F5F4F220F331F441FAB
S1132270AA1FA9F335D00E2E3AF0E0E832D09150DF
S11322805040E695001CCAF72BD0FE2F29D0660FCC
S1132290771F881FBB1F261737074807AB07B0E80F
S11322A009F0BB0B802DBF01FF2793585F4F3AF015
S11322B09E3F510578F00C94620C0C94AD0C5F3F7A
S11322C0E4F3983ED4F3869577956795B795F7959B
S11322D09F5FC9F7880F911D9695879597F9089583
S11322E0E1E0660F771F881FBB1F6217730784071F
S11322F0BA0720F0621B730B840BBA0BEE1F88F72E
S1132300E0950895283008F027E03327DA01990F83
S1132310311D87FD916000966105710539F43260C5
S11323202E5F3D9330E32A95E1F708959F3F30F007
S113233080387105610509F03C5F3C5F3D93913045
S113234008F08068911DDF93CF931F930F93FF9242
S1132350EF92192F987F9695E92F96959695E90F08
S1132360FF27E152F84D99273327EE24FF24A701D4
S1132370E70105900894079428F4360FE71EF81E29
S1132380491F511D660F771F881F991F0694A1F7D7
S11323900590079428F4E70EF81E491F561FC11D27
S11323A0770F881F991F661F0694A1F7059007945D
S11323B028F4F80E491F561FC71FD11D880F991FF7
S11323C0661F771F0694A1F70590079420F4490F20
S11323D0561FC71FD81F990F661F771F881F0694A3
S11323E0A9F784911095177041F0D695C795579524
S11323F04795F794E7941A95C1F7E5E8F7E26894EE
S11324001590159135916591959105907FE273959D
S1132410E118F10A430B560BC90BD009C0F7E10CC4
S1132420F11E431F561FC91FD01D7EF4703311F4D3
S11324308A95E6CFE894015030F0080F0AF400279B
S1132440021708F4202F2395022F7A3328F079E31A
S11324507D932A95E9F710C07D932A9589F6069411
S113246097956795379517951794E118F10A430BDB
S1132470560BC90BD00998F023957E9173957A3346
S113248008F070E37C932013B8F77E9170617D931C
S113249030F0839571E37D9370E32A95E1F711247D
S11324A0EF90FF900F911F91CF91DF91992787FDB6
S11324B09095089591110C94B813803219F08950B5
S11324C08550C8F708959111089581548A5108F4EC
S11324D0805E855A0895FC010590061621F00020BF
S11324E0D9F7C00108953197CF010895FC010590F3
S11324F0615070400110D8F7809590958E0F9F1F02
S11325000895FC016150704001900110D8F7809546
S113251090958E0F9F1F08950F931F93CF93DF9372
S1132520EC018B8180FF1DC086FF0EC08F7B8B83E7
S11325308E819F8101969F838E838A8190E0DF91B3
S1132540CF911F910F91089582FF19C0E881F981FD
S11325509081092F092E000C110B911105C0806286
S11325608B838FEF9FEFEBCF3196F983E8838E81D6
S11325709F8101969F838E83C8019927E0CFEA85C6
S1132580FB85CE0109958C0197FFF1CF8B810F3F1D
S11325901F4F19F490E1892BE3CF90E2FCCF0F9306
S11325A01F93CF93DF93182F092FEB018B8181FDAC
S11325B009C01FEF0FEF812F902FDF91CF911F9153
S11325C00F91089582FF14C02E813F818C819D81DB
S11325D0281739073CF4E881F981CF0101969983E2
S11325E0888310838E819F8101969F838E83E3CF9E
S11325F0E885F985812F0995892BA1F3DACFA0E02D
S1132600B0E0E5E0F3E10C942E10AE014B5F5F4FB8
S1132610FA0161917191AF018091900190919101C2
S11326200E94C603E2E00C944A100F931F93CF93C9
S1132630DF93E0919001F0919101238100E010E09B
S113264021FD0EC00FEF1FEFC801DF91CF911F9145
S11326500F9108950995892B11F00FEF1FEFCE010B
S1132660EC0189916091900170919101DB011896C0
S1132670ED91FC918111EECF8AE00995892B21F32C
S1132680E1CF9C01FB01838180FF11C086FD0FC057
S11326902F3F320751F022838F7D806483838681AC
S11326A097810197978386833327C90108952FEF74
S11326B03FEFFBCFFA01AA27283051F1203181F1F5
S11326C0E8946F936E7F6E5F7F4F8F4F9F4FAF4F36
S11326D0B1E03ED0B4E03CD0670F781F891F9A1F49
S11326E0A11D680F791F8A1F911DA11D6A0F711DFD
S11326F0811D911DA11D20D009F468943F912AE009
S1132700269F11243019305D3193DEF6CF010895F0
S1132710462F4770405D4193B3E00FD0C9F7F6CF21
S1132720462F4F70405D4A3318F0495D31FD4052E9
S1132730419302D0A9F7EACFB4E0A695979587957F
S113274077956795BA95C9F700976105710508955E
S11327509B01AC010A2E069457954795379527950A
S1132760BA95C9F7620F731F841F951FA01D0895A2
S1132770992788270895F894FFCF616E006E6669E3
S11327806E6974790000407A10F35A00A0724E18F2
S1132790090010A5D4E80000E87648170000E40B0F
S11327A054020000CA9A3B000000E1F505000080D5
S11327B0969800000040420F000000A0860100002F
S11327C000102700000000E803000000006400007F
S11327D00000000A00000000000100000000002CBE
S11327E076D888DC674F0823DFC1DFAE59E1B1B783
S11327F096E5E3E453C63AE651997696E8E6C28450
S113280026EB898C9B62ED407C6FFCEFBC9C9F4067
S1132810F2BAA56FA5F490055A2AF75C936B6CF98C
S1132820676DC11BFCE0E40D47FEF520E6B500D062
S1132830ED902E0300943577050080841E08000077
S1132840204E0A000000C80C333333330F986E1245
S1132850831141EF8D2114893BE65516CFFEE6DB4B
S113286018D1844B381BF77C1D901DA4BBE4242095
S11328703284725E228100C9F124ECA1E53D27CDAA
S1132880CCCC3D0AD7233C17B7D13877CC2B329523
S113289095E6241FB14F0A000020410000C8420001
S11328A0401C4620BCBE4CCA1B0E5AAEC59D7400CB
S11328B0646F646177616E69653A0D00696E74389E
S11328C05F743A20257563796B6C690D0A00696E33
S11328D07431365F743A20257563796B6C690D0A1F
S11328E000696E7433325F743A20257563796B6CBA
S11328F0690D0A00696E7436345F743A2025756375
S1132900796B6C690D0A00666C616F743A202575E9
S113291063796B6C690D0A006D6E6FC5BC656E6979
S1132920653A0D00647A69656C656E69653A0D00F7
S9030000FC
