:100000000C9441000C945E000C945E000C945E0015
:100010000C945E000C945E000C945E000C945E00E8
:100020000C945E000C945E000C945E000C945E00D8
:100030000C945E000C945E000C945E000C945E00C8
:100040000C945E000C945E000C945E000C945E00B8
:100050000C945E000C945E000C945E000C945E00A8
:100060000C945E000C945E006E616E00696E66001A
:100070006364696E6F70737578585B656667454633
:10008000470011241FBECFEFD8E0DEBFCDBF12E086
:10009000A0E0B1E0ECE3FBE102C005900D92AA32D2
:1000A000B107D9F722E0AAE2B2E001C01D92AE3357
:1000B000B207E1F70E94A9090C94010D0C9400000D
:1000C0009091C00095FFFCCF8093C60080E090E047
:1000D00008958091C00087FFFCCF8091C60090E01A
:1000E000089587E690E09093C5008093C400109235
:1000F000C00088E18093C10086E08093C20008952B
:1001000080E28093B800ECEBF0E080818460808333
:1001100008958091BC0087FFFCCF089584EA809306
:10012000BC008091BC0087FFFCCF089584E98093D8
:10013000BC00089580E98093BC00089584EC80930E
:10014000BC008091BC0087FFFCCF8091BB0008956C
:1001500084E88093BC008091BC0087FFFCCF809135
:10016000BB0008958093BB0084E88093BC0080911D
:10017000BC0087FFFCCF0895A2E1B0E0E2ECF0E024
:100180000C94BD0A7C013B018A01FC011782168296
:10019000838181FF68C3F7012381F30123FD8591EA
:1001A00023FF81913F01811509F443C0853239F461
:1001B00023FD959123FF91913F01953239F4B701C9
:1001C00090E00E94410C68018601E5CF30E0512C9F
:1001D000912C812CF0E28F1608F03DC09B3281F10A
:1001E00060F4903279F1933299F19E3209F04AC06D
:1001F00086FC1FC0689486F806C09D3231F19033AA
:1002000061F5689480F8F30123FD959123FF9191A6
:100210003F019111DFCF882D897F482E903709F457
:1002200094C208F08AC2983509F494C29F3609F442
:1002300099C2F701868197816296E2E10C94D90A0E
:10024000689481F8689482F8DECF689483F8DBCFF5
:10025000689484F8D8CF87FC1FC080ED890F8A305E
:1002600008F0C3CF86FE06C04AE0549E800D1124DC
:10027000582EC9CF5AE0959E800D1124982E68946F
:1002800085F8C1CF9C3619F4689487F8BCCF9C34AC
:1002900001F1983609F4B7CF3115E9F0892F8F7D38
:1002A0008554833008F0A5C1085F1F4F68018FE3B4
:1002B000898322242394312C8E010F5F1F4FE894F1
:1002C00087F883FC04C02914310408F4F9C1492CCF
:1002D0000DC231E098CF8BEB890F8330A8F468947E
:1002E00084F8905E86FC02C026E0522EE82DEF7363
:1002F0008E2E953689F4689486F828E0521608F018
:1003000044C0252D1E8614C08BE9890F833008F068
:1003100070C1E89484F8E6CF963689F5689487F83A
:10032000852DFCE35F1608F08BE38F5F8E8727E057
:10033000F80161917191819191916F010E85AE01EA
:100340004F5F5F4F0E94F40A5C01F981F88BF0FF68
:1003500003C01DE2F3FF05C082FA112715F981FCE5
:100360001BE228892C70422E211549F111117EC201
:1003700024E0412C921608F490C283E07CC220E075
:10038000511409F4BFCF5A94B8CF27E097E0592E03
:10039000B9CF81108052B70190E00E94410C0F5FED
:1003A0001F4FF80184918111F4CF411409F40CCF4F
:1003B000B70180E290E00E94410C4A94F6CF87FE9C
:1003C0002FC08E858A0DF889F4FF04C09A8191337D
:1003D00009F4815018160CF048C08E87893010F04F
:1003E00028E02E87C501B7FE02C080E090E00196AC
:1003F00011110196511431F0252D30E02F5F3F4F40
:10040000820F931F8915910514F4492C481A882DE1
:100410008970811139C0411030C01115F1F136C019
:1004200086FC28C0E52DF0E05A141B043CF03CEF9C
:10043000A3163FEFB30614F0689487F83296AE0126
:100440004F5F5F4FE40FF51F01C05A94511419F02C
:1004500082918033D1F387FE0DC051E0550D5E8748
:10046000A514B1042CF45A18BDCF81E08E87BACF01
:10047000512CB8CF85E090E0BBCFB70180E290E08F
:100480000E94410C4A94C7CF111529F0B701812F62
:1004900090E00E94410C83FC02C0411040C087FEE6
:1004A00059C04501B7FE02C0812C912CCE010196A6
:1004B0008A0D9B1DFC01E819F909FA8BE98B95015E
:1004C0004E85241B31093F872E87052D10E011959D
:1004D00001951109A814B9044CF18E859F858815E2
:1004E000990524F5E989FA898181F1E08F1A91084B
:1004F00029893A892F5F3F4F3A8B298B80169106C5
:10050000BCF0B70190E00E94410C3FEF83169306C8
:1005100009F7B7018EE290E00E94410CDBCFB701F2
:1005200080E390E00E94410C4A94B7CF80E3DDCF96
:10053000A814B90441F49A81963350F4953319F410
:10054000488944FF05C0B70190E00E94410C2DCFBF
:1005500081E3F9CF8A81813319F058895F7E588B06
:10056000B70190E00E94410C511026C085E490E054
:1005700084FC02C085E690E0B7010E94410CB7FC04
:1005800006C0A114B10471F5888984FF2BC0B19411
:10059000A194B1088DE2B70190E00E94410C80E384
:1005A000EAE0AE16B10404F5B70190E00E94410CF8
:1005B000B701C501C096C9CFB7018EE290E00E9495
:1005C000410C5394539412E0812F1F5FFE0131962A
:1005D000E80FF11D8081B70190E00E94410C1511D8
:1005E000F3CFC4CF8BE2D7CF8F5F9AE0A91AB108BF
:1005F000D7CF9336F1F1933709F442C0933509F41C
:100600004EC0943619F0993609F07CC0F80187FE87
:1006100071C061917191819191916F01082D0F7657
:1006200097FF08C090958095709561957F4F8F4F8B
:100630009F4F00682AE030E0AE014F5F5F4F5D875B
:100640004C870E94A00C182F5C85151B06FF94C0D8
:10065000802F8E7F151508F08EC004FFE1C002FDCB
:10066000D5C00E7E452C802F8678811509F48FC069
:10067000D2C06801F2E0CF0ED11CF801808118CE03
:10068000F801019111916F01652D70E086FC02C0A7
:100690006FEF7FEFC8010E94F30B1C0110CEF80131
:1006A000019111916F01652D70E086FC02C06FEF22
:1006B0007FEFC8010E94E80B1C01689487F801CE07
:1006C000B70180E290E00E94410C9A94FCCDF801C1
:1006D00087FC859187FE81918F01B70190E00E9490
:1006E000410C41104A94F1E02F1A310821143104D1
:1006F00071F75BCE619171916F01072E000C880B31
:10070000990B8CCF482CE89444F82AE030E09537D8
:1007100009F081CDF80147FE28C061917191819166
:1007200091916F018E010F5F1F4FA8010E94A00CD5
:10073000182F101B042D0F7789CF983709F079CD2A
:1007400084FC05C020E130E0E5CF689444F868946B
:1007500042F8F8CF84FE03C0982D9660492E20E120
:1007600032E0D8CF28E030E0D5CF619171916F01B0
:1007700080E090E0D7CF082F412E04FF74CFFE0118
:10078000E10FF11D8081803309F043C0097E03FD34
:100790000EC000FF51C0512E491418F4590C5418C2
:1007A000492C892D8419941408F480E0480E4914CA
:1007B00008F044C09418492C04FF42C0B70180E3FC
:1007C00090E00E94410C02FF09C088E590E001FD25
:1007D00002C088E790E0B7010E94410C1515E0F1D6
:1007E0001150012F10E00F5F1F4F9E012F5F3F4FF1
:1007F0004901020F131FF80182918F01B70190E0A8
:100800000E94410C80169106B1F7CFCD452C082FE0
:10081000B6CF02FD02C04394BACF43944394B7CFFE
:10082000452C082F20CFB70180E290E00E94410CB8
:1008300083948914C0F3B5CF842CFBCF412CBCCF5B
:10084000802F8678811551F280E201FD8BE207FD51
:100850008DE2B70190E0C0CFB70180E390E00E9445
:10086000410C5A94BBCF8FEF9FEFE6CCF5E0412CC3
:100870009F1670F084E0492C481A83FC07C0B7012A
:1008800080E290E00E94410C4A94C9F7111529F0CA
:10089000B701812F90E00E94410C388908E610E0F2
:1008A00033FD02C00CE610E0482D4071842E79CD56
:1008B000CF92DF92EF92FF92FC016A017B0120FD53
:1008C00008C023FD05C022FF02C0F382E282D1826C
:1008D000C082FF90EF90DF90CF900895CF92DF928B
:1008E000EF92FF926B017C0183E044FD10C084E035
:1008F00046FD0DC0D601F701AA0FBB1FEE1FFF1F5B
:100900001094D1F7CA0EDB1EEE1EFF1E81E0CC0C48
:10091000DD1CEE1CFF1C8A95D1F7C701B601620FE2
:10092000711D811D911DFF90EF90DF90CF90089574
:100930000F931F93CF93DF938C01C8010E94FE0B8E
:10094000EC0197FD08C00E94CC0B892BB1F7B801D0
:10095000CE010E94870CCE01DF91CF911F910F91A4
:100960000895A0E0B0E0E7EBF4E00C94C20AD82EC2
:10097000E92E8B01742EC52EB22E0E94FE0BEC01C7
:100980009927CB3221F08D9791F46894B7F80150F4
:10099000104031F480E0CDB7DEB7EDE00C94DE0A14
:1009A0008D2D9E2D0E94FE0BEC0197FDF3CFFB2CAD
:1009B000E894F1F88B2D8073811134C0C03391F528
:1009C000480121E0821A910839F08D2D9E2D0E9458
:1009D000FE0BEC0197FF16C0812C912C5401F7FE01
:1009E00008C0B094A09490948094811C911CA11C88
:1009F000B11C2F2DB501A401872D9C2D0E945804F8
:100A000081E0C9CF8F7D883539F58B2D8264F82E32
:100A10000250104009F38D2D9E2D0E94FE0BEC011B
:100A200097FDDACF812C912C54012C2F20532830A4
:100A3000F0F0F4FC09C02A30D0F0F6FE05C02F7D9E
:100A40008FEE820F863090F06D2D7E2DCE010E94AC
:100A5000870CF1FE9FCFC3CFFB2C6894F1F8B6FC56
:100A600003C02B2D2261F22E8401DCCF27504F2DA5
:100A7000C501B4010E946E044B015C016894F1F859
:100A80000150104009F4ABCF8D2D9E2D0E94FE0B1E
:100A9000EC0197FFCACFA3CFA0E2B0E0E2E5F5E01A
:100AA0000C94BF0A3C015B017A01CE0101964C0116
:100AB00080E2F40111928A95E9F7F301B38189018B
:100AC00080E090E0A0E050E070E021E030E0F8014C
:100AD000B3FD4591B3FF4191642F8F01411107C0D0
:100AE00000E010E0C801A096E0E10C94DB0A4E356E
:100AF00011F4009741F178171906FCF44D3551F1C6
:100B00004D32D9F4511511F1E62FE695E695E695AB
:100B1000E80DF92DF11D462F4770290102C0440C44
:100B2000551C4A95E2F7A2015081452B40836A1774
:100B300079F06A1730F46F5FE7CF5111E5CFA42F3A
:100B4000E3CF6150E1CF71E00196C1CF51E0FCCF1E
:100B500050E0FACF511519F08E8180628E837115A5
:100B600061F0F4019E012F5D3F4F8081DF013196DE
:100B700080958C93E217F307C1F755245394C30172
:100B80000E94FE0B6C0197FD17C0E82FE695E695D5
:100B9000E695E80DF92DF11D808190E09601277012
:100BA000332702C0959587952A95E2F780FD07C007
:100BB000B301C6010E94870C511471F091CFE1146A
:100BC000F10419F0F701C1927F0181E0A81AB10880
:100BD000512CA114B10499F6E114F10409F482CF67
:100BE000F70110827FCFA6E0B0E0E9EFF5E00C94CA
:100BF000BE0AC82E392E8B014A010E94FE0B8D833E
:100C00009E838D819E8199272D812B3269F08D974E
:100C100009F0D2C090E8B92E0150104039F480E0BC
:100C20002696E1E10C94DA0AB12CF6CF8C2D932DA7
:100C30000E94FE0B8D839E838D819E8197FDEFCF59
:100C40008D819E810E94D50B3C0199E66916710445
:100C500009F4DCC0EEE66E16710409F4F2C0412C12
:100C6000512C3201E12CF12C2D812053DB2C2A3028
:100C700008F007C16894D1F88B2D8870B2FEE8C0E7
:100C8000811103C0FFEFEF1AFF0A0150104051F02D
:100C90008C2D932D0E94FE0B8D839E838D819E81D2
:100CA00097FFD4C0D1FEBBCF8D818F7D853409F0F5
:100CB00054C0580191E0A91AB10809F4B0CF8C2DA5
:100CC000932D0E94FE0B8D839E83ED81FE81F7FDA7
:100CD000A6CFCF019927EB3221F08D9771F468945C
:100CE000D4F85801F2E0AF1AB10809F498CF8C2D6E
:100CF000932D0E94FE0B8D839E838D819E81C097D4
:100D00000A9708F08CCF00E010E0B801110F880BB3
:100D1000990B2D81205340E20E946E0469837A83EF
:100D20008B839C8309811A8121E0A21AB10859F0B2
:100D30008C2D932D0E94FE0B8D839E838D819E8131
:100D4000C0970A9710F3D4FE05C009811A81119546
:100D500001951109E00EF11E8501012B41F08D81F5
:100D60009E8197FD04C06C2D732D0E94870CC301DA
:100D7000B2010E94AE089B01AC01F7FE8AC0F1945B
:100D8000E194F108EFE1FBE1FA83E983A980BA80FD
:100D900098E1A91AB10800E210E0E981FA81E016B1
:100DA000F10608F07BC03497FA83E983169507951E
:100DB000EA15FB0591F722C0B12C42CF80179107AD
:100DC00081F08C2D932D0E94FE0B7C0197FD09C0B4
:100DD0000E94D50BD81611F16C2D732DC7010E94FE
:100DE000870CE981FA81EC50FA4109F018CF80E0D4
:100DF00090E0A0E8BFE79C01AD01DB2CD7FC505888
:100E00008114910409F055C081E00ACF89E09AE18C
:100E10009A83898389819A81080F191FE981FA8150
:100E20003196FA83E9833197D49089819A81D110E0
:100E3000C5CF89509A41D9F680E090E0A0ECBFE799
:100E4000DACFE6E0FAE1FA83E983E4CFBD2C0CCFF8
:100E5000811519F081E0E81AF10840E2C301B201FE
:100E60000E946E042B013C0198E9491699E9590644
:100E7000690699E1790608F408CFEB2DE660DE2ECD
:100E800004CF2E3F09F00ECFB3FC0CCF6894D3F8FB
:100E9000FCCE87E39BE19A83898378CF6591759136
:100EA000859195910E94EB089B01AC01E01AF10A33
:100EB00074CFF4012083318342835383A5CFA8E00C
:100EC000B0E0E5E6F7E00C94BD0A6C016F8378872B
:100ED0004B835C83FC0117821682212CF601338040
:100EE000EF81F88533FCF59033FEF190F887EF83BE
:100EF000F11419F18F2D90E00E94CC0B892B21F079
:100F0000C6010E949804EACFF5E2FF120BC0EF8100
:100F1000F88533FC559033FE5190F887EF8385E2D6
:100F200058120EC0C6010E94FE0B4C0197FDB2C0C4
:100F3000F816A1F2B6010E94870C822D90E0AEC097
:100F40009AE2412C59120AC0EF81F88533FC559082
:100F500033FE5190F887EF8344244394E12CF12C25
:100F600020ED250D2A3080F141FE43C0E114F1044B
:100F700021F3E8E65E1609F440C0FCE65F1609F4CA
:100F800049C05114D1F2652D70E080E790E00E94D5
:100F9000DD0B892B91F200E010E040FC08C0AB8033
:100FA000BC80F501019111915F01EB83BC82FEE6EB
:100FB0005F123BC0F6014681578160E070E0242D4E
:100FC000C8010E9458048ACF689441F8B70180E0B4
:100FD00090E040E20E946E046D837E83ED80FE808F
:100FE000EF81F88533FC559033FE5190F887EF83FD
:100FF000B7CFEE24EA94FE2CBCCFEF81F88533FC0A
:10100000559033FE5190F887EF8388E65812B9CF98
:10101000689443F8689442F8EF81F88533FC559062
:1010200033FE5190F887EF83ACCFF3E65F121CC01C
:1010300041FC03C0EE24E394F12CC6010E94FE0B98
:1010400089839A8389819A8197FD24C001151105AE
:1010500019F0F80181938F0191E0E91AF10869F71D
:1010600040FC3CCF23943ACFEBE55E121BC02F81AE
:101070003885A801B701C6010E944C058F83988767
:101080008F819885892B61F7F601838180738115A3
:1010900009F453CF8FEF9FEF21104FCF2896E2E155
:1010A0000C94D90AC6010E94980497FDF3CFFFE67D
:1010B0005F1609F450C080E7581690F499E6591667
:1010C000D1F0EAE65E1630F4F8E55F1691F084E6BA
:1010D0005816F1F1A801B701C6010E94F30511C02D
:1010E00093E7591601F1E4E75E1668F4F0E75F163E
:1010F00089F7689446F8242DA801B701C6010E941B
:10110000B1048115C0CF85E7581611F198E759163B
:10111000EFCF0115110519F0F80161928F01E1E09F
:10112000EE1AF10871F0C6010E94FE0B3C0197FD1A
:1011300008C00E94CC0B892B61F3B601C3010E9449
:10114000870C0115110509F48BCFF801108288CFA7
:10115000689445F8D0CF689444F8CDCFE89409C09E
:1011600097FB3EF490958095709561957F4F8F4FDA
:101170009F4F9923A9F0F92F96E9BB279395F695F0
:10118000879577956795B795F111F8CFFAF4BB0F6E
:1011900011F460FF1BC06F5F7F4F8F4F9F4F16C0D2
:1011A000882311F096E911C0772321F09EE8872F5C
:1011B000762F05C0662371F096E8862F70E060E018
:1011C0002AF09A95660F771F881FDAF7880F969591
:1011D000879597F908950E94FE080C946F090E9464
:1011E000610938F00E94680920F0952311F00C94F1
:1011F00058090C945E0911240C94A3090E948009DB
:1012000070F3959FC1F3950F50E0551F629FF00159
:10121000729FBB27F00DB11D639FAA27F00DB11D72
:10122000AA1F649F6627B00DA11D661F829F2227FB
:10123000B00DA11D621F739FB00DA11D621F839F82
:10124000A00D611D221F749F3327A00D611D231F58
:10125000849F600D211D822F762F6A2F11249F57A6
:1012600050409AF0F1F088234AF0EE0FFF1FBB1FA9
:10127000661F771F881F91505040A9F79E3F510568
:1012800080F00C9458090C94A3095F3FE4F3983E56
:10129000D4F3869577956795B795F795E7959F5F12
:1012A000C1F7FE2B880F911D9695879597F90895A4
:1012B00097F99F6780E870E060E008959FEF80EC09
:1012C000089500240A9416161706180609060895AC
:1012D00000240A9412161306140605060895092E12
:1012E0000394000C11F4882352F0BB0F40F4BF2B81
:1012F00011F460FF04C06F5F7F4F8F4F9F4F0895C1
:1013000057FD9058440F551F59F05F3F71F04795B6
:10131000880F97FB991F61F09F3F79F0879508959B
:10132000121613061406551FF2CF4695F1DF08C0BA
:10133000161617061806991FF1CF869571056105D7
:1013400008940895E894BB2766277727CB0197F97F
:10135000089500D0CDB7DEB787E690E09093C50042
:101360008093C4001092C00088E18093C10086E0A1
:101370008093C2008AE292E020E630E020933202BD
:101380003093330229E630E0209334023093350263
:1013900023E020932D0210923602109237028093A0
:1013A0003C0290933D0280933A0290933B028093DB
:1013B0003802909339020E948000C12CD12C1982EE
:1013C0001A8237ED432E31E0532E48EA642E41E075
:1013D000742E50E8852E51E0952E62E5A62E61E030
:1013E000B62E72E2E72E71E0F72E0E948E008091F9
:1013F000B900887F8830C1F08091B900887F1F9242
:101400008F9381E091E09F938F930E94710C0E94D3
:101410009A000F900F900F900F900E948E00809175
:10142000B900887F883041F71981812F8270806AE6
:101430000E94B2008091B900887F883181F080914C
:10144000B900887F1F928F93FF92EF920E94710CD8
:101450000E949A000F900F900F900F90C6CF8C2D86
:101460000E94B2008091B900887F883281F080911B
:10147000B900887F1F928F93BF92AF920E94710C28
:101480000E949A000F900F900F900F90AECF0E9485
:101490008E008091B900887F803181F08091B90001
:1014A000887F1F928F939F928F920E94710C0E944F
:1014B0009A000F900F900F900F9097CF812F82700E
:1014C000816A0E94B2008091B900887F803481F0E7
:1014D0008091B900887F1F928F937F926F920E94B4
:1014E000710C0E949A000F900F900F900F907DCF7B
:1014F0000E94A800382E8091B900887F883581F03D
:101500008091B900887F1F928F935F924F920E94C3
:10151000710C0E949A000F900F900F900F9065CF62
:101520000E9496008091B900887F883F41F08091A9
:10153000B900887F1F928F938EEF91E064CF1F9246
:101540003F92DF92CF928EE192E09F938F930E9421
:10155000710C8FEFC81AD80A91E0D9220F900F9022
:101560000F900F900F900F90C7FA8D2D881F990B39
:10157000919580F989839A8338CF2F923F924F9229
:101580005F926F927F928F929F92AF92BF92CF9213
:10159000DF92EF92FF920F931F93CF93DF93CDB71C
:1015A000DEB7CA1BDB0B0FB6F894DEBF0FBECDBF94
:1015B00009942A88398848885F846E847D848C8465
:1015C0009B84AA84B984C884DF80EE80FD800C816E
:1015D0001B81AA81B981CE0FD11D0FB6F894DEBF51
:1015E0000FBECDBFED010895283008F027E0332766
:1015F000DA01990F311D87FD916000966105710533
:1016000039F432602E5F3D9330E32A95E1F7089577
:101610009F3F30F080387105610509F03C5F3C5F09
:101620003D93913008F08068911DDF93CF931F9315
:101630000F93FF92EF92192F987F9695E92F969529
:101640009695E90FFF27E559F54E99273327EE24A4
:10165000FF24A701E70105900894079428F4360FAA
:10166000E71EF81E491F511D660F771F881F991F1F
:101670000694A1F70590079428F4E70EF81E491F79
:10168000561FC11D770F881F991F661F0694A1F76B
:101690000590079428F4F80E491F561FC71FD11D47
:1016A000880F991F661F771F0694A1F7059007946E
:1016B00020F4490F561FC71FD81F990F661F771FA9
:1016C000881F0694A9F784911095177041F0D6955C
:1016D000C79557954795F794E7941A95C1F7E1E1B7
:1016E000FAE1689415901591359165919591059061
:1016F0007FE27395E118F10A430B560BC90BD00931
:10170000C0F7E10CF11E431F561FC91FD01D7EF408
:10171000703311F48A95E6CFE894015030F0080F49
:101720000AF40027021708F4202F2395022F7A339A
:1017300028F079E37D932A95E9F710C07D932A95E7
:1017400089F6069497956795379517951794E1183C
:10175000F10A430B560BC90BD00998F023957E91E3
:1017600073957A3308F070E37C932013B8F77E9179
:1017700070617D9330F0839571E37D9370E32A95DA
:10178000E1F71124EF90FF900F911F91CF91DF911E
:10179000992787FD9095089591110C94FE0C803245
:1017A00019F089508550C8F7089591110895815412
:1017B0008A5108F4805E855A0895FC01059006164A
:1017C00021F00020D9F7C00108953197CF01089585
:1017D000FC010590615070400110D8F780959095FC
:1017E0008E0F9F1F0895FC01615070400190011001
:1017F000D8F7809590958E0F9F1F08950F931F9394
:10180000CF93DF93EC018B8180FF1DC086FF0EC05C
:101810008F7B8B838E819F8101969F838E838A81AC
:1018200090E0DF91CF911F910F91089582FF19C031
:10183000E881F9819081092F092E000C110B91117B
:1018400005C080628B838FEF9FEFEBCF3196F983DA
:10185000E8838E819F8101969F838E83C80199279B
:10186000E0CFEA85FB85CE0109958C0197FFF1CF8A
:101870008B810F3F1F4F19F490E1892BE3CF90E24A
:10188000FCCF0F931F93CF93DF93182F092FEB01FA
:101890008B8181FD09C01FEF0FEF812F902FDF910A
:1018A000CF911F910F91089582FF14C02E813F8127
:1018B0008C819D81281739073CF4E881F981CF019B
:1018C00001969983888310838E819F8101969F83DF
:1018D0008E83E3CFE885F985812F0995892BA1F3C4
:1018E000DACFA0E0B0E0E7E7FCE00C94CD0AAE016F
:1018F0004B5F5F4FFA0161917191AF0180913A02A4
:1019000090913B020E94BC00E2E00C94E90A9C0129
:10191000FB01838180FF11C086FD0FC02F3F32077E
:1019200051F022838F7D8064838386819781019724
:10193000978386833327C90108952FEF3FEFFBCFAD
:10194000FA01AA27283051F1203181F1E8946F93F0
:101950006E7F6E5F7F4F8F4F9F4FAF4FB1E03ED096
:10196000B4E03CD0670F781F891F9A1FA11D680F34
:10197000791F8A1F911DA11D6A0F711D811D911D67
:10198000A11D20D009F468943F912AE0269F1124DC
:101990003019305D3193DEF6CF010895462F477040
:1019A000405D4193B3E00FD0C9F7F6CF462F4F709B
:1019B000405D4A3318F0495D31FD4052419302D0F9
:1019C000A9F7EACFB4E0A69597958795779567959F
:1019D000BA95C9F700976105710508959B01AC019F
:1019E0000A2E06945795479537952795BA95C9F7C6
:1019F000620F731F841F951FA01D089599278827C4
:101A00000895F894FFCF616E006E66696E6974790F
:101A10000000407A10F35A00A0724E18090010A579
:101A2000D4E80000E87648170000E40B54020000F8
:101A3000CA9A3B000000E1F505000080969800007E
:101A40000040420F000000A08601000000102700A7
:101A5000000000E803000000006400000000000A2D
:101A600000000000000100000000002C76D888DC97
:101A7000674F0823DFC1DFAE59E1B1B796E5E3E474
:101A800053C63AE651997696E8E6C28426EB898CED
:101A90009B62ED407C6FFCEFBC9C9F40F2BAA56F4F
:101AA000A5F490055A2AF75C936B6CF9676DC11B1E
:101AB000FCE0E40D47FEF520E6B500D0ED902E03E6
:101AC00000943577050080841E080000204E0A002F
:101AD0000000C80C333333330F986E12831141EF7B
:101AE0008D2114893BE65516CFFEE6DB18D1844BD9
:101AF000381BF77C1D901DA4BBE424203284725E49
:101B0000228100C9F124ECA1E53D27CDCCCC3D0AD2
:101B1000D7233C17B7D13877CC2B329595E6241FC5
:101B2000B14F0A000020410000C84200401C46207E
:0C1B3000BCBE4CCA1B0E5AAEC59D740012
:101B3C00A0493243207374617274206661696C65CC
:101B4C00642C207374617475733A20252E32780DD1
:101B5C000A0049324320454550524F4D2077726957
:101B6C0074652072657175657374206661696C6546
:101B7C00642C207374617475733A20252E32780DA1
:101B8C000A0049324320454550524F4D207365742D
:101B9C002061646472657373206661696C65642C82
:101BAC00207374617475733A20252E32780D0A00F7
:101BBC00493243207365636F6E6420737461727471
:101BCC00206661696C65642C207374617475733A5A
:101BDC0020252E32780D0A004932432045455052BB
:101BEC004F4D207265616420726571756573742048
:101BFC006661696C65642C207374617475733A202A
:101C0C00252E32780D0A0049324320454550524F5B
:101C1C004D2072656164206661696C65642C20736B
:101C2C0074617475733A20252E32780D0A0049328E
:101C3C00432073746F70206661696C65642C20732B
:101C4C0074617475733A20252E32780D0A00252E96
:0A1C5C0033783A2025780D0A0000C5
:00000001FF
